{"abi":[{"type":"constructor","inputs":[{"name":"initialOwner","type":"address","internalType":"address"},{"name":"managerContract","type":"address","internalType":"address"}],"stateMutability":"nonpayable"},{"type":"function","name":"addresses","inputs":[{"name":"","type":"uint256","internalType":"uint256"}],"outputs":[{"name":"tokenID","type":"string","internalType":"string"},{"name":"chainID","type":"string","internalType":"string"},{"name":"tokenAddress","type":"string","internalType":"string"},{"name":"nonEVMAddress","type":"string","internalType":"string"},{"name":"coinTypeID","type":"string","internalType":"string"},{"name":"nonce","type":"uint256","internalType":"uint256"}],"stateMutability":"view"},{"type":"function","name":"getAddressBatchData","inputs":[{"name":"addressId","type":"uint256","internalType":"uint256"},{"name":"keys","type":"string[]","internalType":"string[]"}],"outputs":[{"name":"nonce","type":"uint256","internalType":"uint256"},{"name":"values","type":"string[]","internalType":"string[]"}],"stateMutability":"view"},{"type":"function","name":"getAddressData","inputs":[{"name":"addressId","type":"uint256","internalType":"uint256"},{"name":"key","type":"string","internalType":"string"}],"outputs":[{"name":"","type":"string","internalType":"string"}],"stateMutability":"view"},{"type":"function","name":"getAddressNonce","inputs":[{"name":"addressId","type":"uint256","internalType":"uint256"}],"outputs":[{"name":"","type":"uint256","internalType":"uint256"}],"stateMutability":"view"},{"type":"function","name":"getApprovalPower","inputs":[{"name":"account","type":"address","internalType":"address"}],"outputs":[{"name":"","type":"uint256","internalType":"uint256"}],"stateMutability":"view"},{"type":"function","name":"getApprovalThreshold","inputs":[],"outputs":[{"name":"","type":"uint256","internalType":"uint256"}],"stateMutability":"view"},{"type":"function","name":"isAdmin","inputs":[{"name":"account","type":"address","internalType":"address"}],"outputs":[{"name":"","type":"bool","internalType":"bool"}],"stateMutability":"view"},{"type":"function","name":"isAdminOrManager","inputs":[{"name":"account","type":"address","internalType":"address"}],"outputs":[{"name":"","type":"bool","internalType":"bool"}],"stateMutability":"view"},{"type":"function","name":"isManager","inputs":[{"name":"account","type":"address","internalType":"address"}],"outputs":[{"name":"","type":"bool","internalType":"bool"}],"stateMutability":"view"},{"type":"function","name":"l2StorageManager","inputs":[],"outputs":[{"name":"","type":"address","internalType":"contract IL2StorageManager"}],"stateMutability":"view"},{"type":"function","name":"nextAddressId","inputs":[],"outputs":[{"name":"","type":"uint256","internalType":"uint256"}],"stateMutability":"view"},{"type":"function","name":"owner","inputs":[],"outputs":[{"name":"","type":"address","internalType":"address"}],"stateMutability":"view"},{"type":"function","name":"renounceOwnership","inputs":[],"outputs":[],"stateMutability":"nonpayable"},{"type":"function","name":"setAddressData","inputs":[{"name":"addressId","type":"uint256","internalType":"uint256"},{"name":"key","type":"string","internalType":"string"},{"name":"value","type":"string","internalType":"string"}],"outputs":[],"stateMutability":"nonpayable"},{"type":"function","name":"setAddressDataBatch","inputs":[{"name":"addressId","type":"uint256","internalType":"uint256"},{"name":"keys","type":"string[]","internalType":"string[]"},{"name":"values","type":"string[]","internalType":"string[]"}],"outputs":[],"stateMutability":"nonpayable"},{"type":"function","name":"setL2StorageManager","inputs":[{"name":"manager","type":"address","internalType":"address"}],"outputs":[],"stateMutability":"nonpayable"},{"type":"function","name":"transferOwnership","inputs":[{"name":"newOwner","type":"address","internalType":"address"}],"outputs":[],"stateMutability":"nonpayable"},{"type":"event","name":"AddressDataChanged","inputs":[{"name":"addressId","type":"uint256","indexed":false,"internalType":"uint256"},{"name":"key","type":"string","indexed":false,"internalType":"string"},{"name":"value","type":"string","indexed":false,"internalType":"string"},{"name":"nonce","type":"uint256","indexed":false,"internalType":"uint256"}],"anonymous":false},{"type":"event","name":"L2StorageManagerSet","inputs":[{"name":"newManager","type":"address","indexed":true,"internalType":"address"}],"anonymous":false},{"type":"event","name":"OwnershipTransferred","inputs":[{"name":"previousOwner","type":"address","indexed":true,"internalType":"address"},{"name":"newOwner","type":"address","indexed":true,"internalType":"address"}],"anonymous":false},{"type":"error","name":"OwnableInvalidOwner","inputs":[{"name":"owner","type":"address","internalType":"address"}]},{"type":"error","name":"OwnableUnauthorizedAccount","inputs":[{"name":"account","type":"address","internalType":"address"}]}],"bytecode":{"object":"0x608060405260016003553480156200001657600080fd5b506040516200169738038062001697833981016040819052620000399162000114565b8082806001600160a01b0381166200006b57604051631e4fbdf760e01b81526000600482015260240160405180910390fd5b6200007681620000a7565b50600180546001600160a01b0319166001600160a01b0384161790556200009d81620000a7565b505050506200014c565b600080546001600160a01b038381166001600160a01b0319831681178455604051919092169283917f8be0079c531659141344cd1fd0a4f28419497f9722a3daafe3b4186f6b6457e09190a35050565b80516001600160a01b03811681146200010f57600080fd5b919050565b600080604083850312156200012857600080fd5b6200013383620000f7565b91506200014360208401620000f7565b90509250929050565b61153b806200015c6000396000f3fe608060405234801561001057600080fd5b506004361061010b5760003560e01c8063928c2076116100a2578063e370434c11610071578063e370434c1461023a578063edf26d9b1461024d578063f164a22014610272578063f2fde38b14610285578063f3ae24151461029857600080fd5b8063928c2076146101e95780639f736e75146101fc578063ab9a890e1461021f578063ba4680681461023257600080fd5b80636446dc47116100de5780636446dc47146101855780636d767708146101a5578063715018a6146101d05780638da5cb5b146101d857600080fd5b806324d7806c146101105780634ba35ba314610138578063570d9324146101595780635ea329381461016e575b600080fd5b61012361011e366004610db2565b6102ab565b60405190151581526020015b60405180910390f35b61014b610146366004610de2565b610321565b60405161012f929190610eb1565b61016c610167366004610db2565b6104a4565b005b61017760035481565b60405190815260200161012f565b610198610193366004610f1b565b6104f6565b60405161012f9190610f84565b6001546101b8906001600160a01b031681565b6040516001600160a01b03909116815260200161012f565b61016c6105be565b6000546001600160a01b03166101b8565b61016c6101f736600461104e565b6105d2565b61017761020a3660046110bb565b60009081526002602052604090206005015490565b61016c61022d366004611173565b6106ae565b61017761085f565b610123610248366004610db2565b6108d2565b61026061025b3660046110bb565b610979565b60405161012f969594939291906111d6565b610177610280366004610db2565b610c55565b61016c610293366004610db2565b610cc4565b6101236102a6366004610db2565b610d02565b600154604051630935e01b60e21b81526001600160a01b03838116600483015260009216906324d7806c906024015b602060405180830381865afa1580156102f7573d6000803e3d6000fd5b505050506040513d601f19601f8201168201806040525081019061031b919061124b565b92915050565b600060608267ffffffffffffffff81111561033e5761033e610f97565b60405190808252806020026020018201604052801561037157816020015b606081526020019060019003908161035c5790505b50905060005b838110156104895760008681526002602052604090206006018585838181106103a2576103a261126d565b90506020028101906103b49190611283565b6040516103c29291906112d1565b908152602001604051809103902080546103db906112e1565b80601f0160208091040260200160405190810160405280929190818152602001828054610407906112e1565b80156104545780601f1061042957610100808354040283529160200191610454565b820191906000526020600020905b81548152906001019060200180831161043757829003601f168201915b505050505082828151811061046b5761046b61126d565b602002602001018190525080806104819061131b565b915050610377565b50600094855260026020526040909420600501549492505050565b6104ac610d35565b600180546001600160a01b0319166001600160a01b0383169081179091556040517fa3567760380494e9d4b62e18aa13c525c9460c4688cb0233faa27971c488d02f90600090a250565b606060026000858152602001908152602001600020600601838360405161051e9291906112d1565b90815260200160405180910390208054610537906112e1565b80601f0160208091040260200160405190810160405280929190818152602001828054610563906112e1565b80156105b05780601f10610585576101008083540402835291602001916105b0565b820191906000526020600020905b81548152906001019060200180831161059357829003601f168201915b505050505090509392505050565b6105c6610d35565b6105d06000610d62565b565b6001546001600160a01b031633146106055760405162461bcd60e51b81526004016105fc90611342565b60405180910390fd5b80600260008581526020019081526020016000206006018360405161062a9190611384565b9081526020016040518091039020908161064491906113ef565b506000838152600260205260408120600501805482906106639061131b565b91905081905590507f7c16a28debb9c19a8e2e08a27910841f4553f547d15187df585859f10d1510da848484846040516106a094939291906114af565b60405180910390a150505050565b6001546001600160a01b031633146106d85760405162461bcd60e51b81526004016105fc90611342565b80518251146107335760405162461bcd60e51b815260206004820152602160248201527f4d69736d617463686564206b65797320616e642076616c7565732061727261796044820152607360f81b60648201526084016105fc565b60005b8251811015610859578181815181106107515761075161126d565b6020026020010151600260008681526020019081526020016000206006018483815181106107815761078161126d565b60200260200101516040516107969190611384565b908152602001604051809103902090816107b091906113ef565b506000848152600260205260408120600501805482906107cf9061131b565b91905081905590507f7c16a28debb9c19a8e2e08a27910841f4553f547d15187df585859f10d1510da8585848151811061080b5761080b61126d565b60200260200101518585815181106108255761082561126d565b60200260200101518460405161083e94939291906114af565b60405180910390a150806108518161131b565b915050610736565b50505050565b60015460408051631748d00d60e31b815290516000926001600160a01b03169163ba4680689160048083019260209291908290030181865afa1580156108a9573d6000803e3d6000fd5b505050506040513d601f19601f820116820180604052508101906108cd91906114ec565b905090565b600154604051630935e01b60e21b81526001600160a01b03838116600483015260009216906324d7806c90602401602060405180830381865afa15801561091d573d6000803e3d6000fd5b505050506040513d601f19601f82011682018060405250810190610941919061124b565b8061031b575060015460405163f3ae241560e01b81526001600160a01b0384811660048301529091169063f3ae2415906024016102da565b600260205260009081526040902080548190610994906112e1565b80601f01602080910402602001604051908101604052809291908181526020018280546109c0906112e1565b8015610a0d5780601f106109e257610100808354040283529160200191610a0d565b820191906000526020600020905b8154815290600101906020018083116109f057829003601f168201915b505050505090806001018054610a22906112e1565b80601f0160208091040260200160405190810160405280929190818152602001828054610a4e906112e1565b8015610a9b5780601f10610a7057610100808354040283529160200191610a9b565b820191906000526020600020905b815481529060010190602001808311610a7e57829003601f168201915b505050505090806002018054610ab0906112e1565b80601f0160208091040260200160405190810160405280929190818152602001828054610adc906112e1565b8015610b295780601f10610afe57610100808354040283529160200191610b29565b820191906000526020600020905b815481529060010190602001808311610b0c57829003601f168201915b505050505090806003018054610b3e906112e1565b80601f0160208091040260200160405190810160405280929190818152602001828054610b6a906112e1565b8015610bb75780601f10610b8c57610100808354040283529160200191610bb7565b820191906000526020600020905b815481529060010190602001808311610b9a57829003601f168201915b505050505090806004018054610bcc906112e1565b80601f0160208091040260200160405190810160405280929190818152602001828054610bf8906112e1565b8015610c455780601f10610c1a57610100808354040283529160200191610c45565b820191906000526020600020905b815481529060010190602001808311610c2857829003601f168201915b5050505050908060050154905086565b60015460405163078b251160e51b81526001600160a01b038381166004830152600092169063f164a22090602401602060405180830381865afa158015610ca0573d6000803e3d6000fd5b505050506040513d601f19601f8201168201806040525081019061031b91906114ec565b610ccc610d35565b6001600160a01b038116610cf657604051631e4fbdf760e01b8152600060048201526024016105fc565b610cff81610d62565b50565b60015460405163f3ae241560e01b81526001600160a01b038381166004830152600092169063f3ae2415906024016102da565b6000546001600160a01b031633146105d05760405163118cdaa760e01b81523360048201526024016105fc565b600080546001600160a01b038381166001600160a01b0319831681178455604051919092169283917f8be0079c531659141344cd1fd0a4f28419497f9722a3daafe3b4186f6b6457e09190a35050565b600060208284031215610dc457600080fd5b81356001600160a01b0381168114610ddb57600080fd5b9392505050565b600080600060408486031215610df757600080fd5b83359250602084013567ffffffffffffffff80821115610e1657600080fd5b818601915086601f830112610e2a57600080fd5b813581811115610e3957600080fd5b8760208260051b8501011115610e4e57600080fd5b6020830194508093505050509250925092565b60005b83811015610e7c578181015183820152602001610e64565b50506000910152565b60008151808452610e9d816020860160208601610e61565b601f01601f19169290920160200192915050565b600060408201848352602060408185015281855180845260608601915060608160051b870101935082870160005b82811015610f0d57605f19888703018452610efb868351610e85565b95509284019290840190600101610edf565b509398975050505050505050565b600080600060408486031215610f3057600080fd5b83359250602084013567ffffffffffffffff80821115610f4f57600080fd5b818601915086601f830112610f6357600080fd5b813581811115610f7257600080fd5b876020828501011115610e4e57600080fd5b602081526000610ddb6020830184610e85565b634e487b7160e01b600052604160045260246000fd5b604051601f8201601f1916810167ffffffffffffffff81118282101715610fd657610fd6610f97565b604052919050565b600082601f830112610fef57600080fd5b813567ffffffffffffffff81111561100957611009610f97565b61101c601f8201601f1916602001610fad565b81815284602083860101111561103157600080fd5b816020850160208301376000918101602001919091529392505050565b60008060006060848603121561106357600080fd5b83359250602084013567ffffffffffffffff8082111561108257600080fd5b61108e87838801610fde565b935060408601359150808211156110a457600080fd5b506110b186828701610fde565b9150509250925092565b6000602082840312156110cd57600080fd5b5035919050565b600082601f8301126110e557600080fd5b8135602067ffffffffffffffff8083111561110257611102610f97565b8260051b611111838201610fad565b938452858101830193838101908886111561112b57600080fd5b84880192505b85831015611167578235848111156111495760008081fd5b6111578a87838c0101610fde565b8352509184019190840190611131565b98975050505050505050565b60008060006060848603121561118857600080fd5b83359250602084013567ffffffffffffffff808211156111a757600080fd5b6111b3878388016110d4565b935060408601359150808211156111c957600080fd5b506110b1868287016110d4565b60c0815260006111e960c0830189610e85565b82810360208401526111fb8189610e85565b9050828103604084015261120f8188610e85565b905082810360608401526112238187610e85565b905082810360808401526112378186610e85565b9150508260a0830152979650505050505050565b60006020828403121561125d57600080fd5b81518015158114610ddb57600080fd5b634e487b7160e01b600052603260045260246000fd5b6000808335601e1984360301811261129a57600080fd5b83018035915067ffffffffffffffff8211156112b557600080fd5b6020019150368190038213156112ca57600080fd5b9250929050565b8183823760009101908152919050565b600181811c908216806112f557607f821691505b60208210810361131557634e487b7160e01b600052602260045260246000fd5b50919050565b60006001820161133b57634e487b7160e01b600052601160045260246000fd5b5060010190565b60208082526022908201527f43616c6c6572206973206e6f7420746865204c3253746f726167654d616e616760408201526132b960f11b606082015260800190565b60008251611396818460208701610e61565b9190910192915050565b601f8211156113ea57600081815260208120601f850160051c810160208610156113c75750805b601f850160051c820191505b818110156113e6578281556001016113d3565b5050505b505050565b815167ffffffffffffffff81111561140957611409610f97565b61141d8161141784546112e1565b846113a0565b602080601f831160018114611452576000841561143a5750858301515b600019600386901b1c1916600185901b1785556113e6565b600085815260208120601f198616915b8281101561148157888601518255948401946001909101908401611462565b508582101561149f5787850151600019600388901b60f8161c191681555b5050505050600190811b01905550565b8481526080602082015260006114c86080830186610e85565b82810360408401526114da8186610e85565b91505082606083015295945050505050565b6000602082840312156114fe57600080fd5b505191905056fea264697066735822122041dfa7d7346c46245c977b0136e7d2fa38bcce7e5ae7575f224c107979cfaa4264736f6c63430008140033","linkReferences":{}},"methodIdentifiers":{"addresses(uint256)":"edf26d9b","getAddressBatchData(uint256,string[])":"4ba35ba3","getAddressData(uint256,string)":"6446dc47","getAddressNonce(uint256)":"9f736e75","getApprovalPower(address)":"f164a220","getApprovalThreshold()":"ba468068","isAdmin(address)":"24d7806c","isAdminOrManager(address)":"e370434c","isManager(address)":"f3ae2415","l2StorageManager()":"6d767708","nextAddressId()":"5ea32938","owner()":"8da5cb5b","renounceOwnership()":"715018a6","setAddressData(uint256,string,string)":"928c2076","setAddressDataBatch(uint256,string[],string[])":"ab9a890e","setL2StorageManager(address)":"570d9324","transferOwnership(address)":"f2fde38b"},"id":1}