{"abi":[{"type":"constructor","inputs":[{"name":"initialOwner","type":"address","internalType":"address"},{"name":"managerContract","type":"address","internalType":"address"}],"stateMutability":"nonpayable"},{"type":"function","name":"createList","inputs":[{"name":"handle","type":"string","internalType":"string"},{"name":"name","type":"string","internalType":"string"},{"name":"description","type":"string","internalType":"string"},{"name":"tokenIDs","type":"uint256[]","internalType":"uint256[]"},{"name":"isPrimaryListForToken","type":"bool","internalType":"bool"}],"outputs":[{"name":"_listId","type":"uint256","internalType":"uint256"}],"stateMutability":"nonpayable"},{"type":"function","name":"createSublist","inputs":[{"name":"name","type":"string","internalType":"string"},{"name":"description","type":"string","internalType":"string"},{"name":"listHash","type":"string","internalType":"string"},{"name":"tokenIDs","type":"uint256[]","internalType":"uint256[]"}],"outputs":[{"name":"returnHash","type":"string","internalType":"string"}],"stateMutability":"nonpayable"},{"type":"function","name":"getApprovalPower","inputs":[{"name":"account","type":"address","internalType":"address"}],"outputs":[{"name":"","type":"uint256","internalType":"uint256"}],"stateMutability":"view"},{"type":"function","name":"getApprovalThreshold","inputs":[],"outputs":[{"name":"","type":"uint256","internalType":"uint256"}],"stateMutability":"view"},{"type":"function","name":"getListCreator","inputs":[{"name":"listId","type":"uint256","internalType":"uint256"}],"outputs":[{"name":"","type":"address","internalType":"address"}],"stateMutability":"view"},{"type":"function","name":"getListData","inputs":[{"name":"listId","type":"uint256","internalType":"uint256"},{"name":"key","type":"string","internalType":"string"}],"outputs":[{"name":"","type":"string","internalType":"string"}],"stateMutability":"view"},{"type":"function","name":"getListInfo","inputs":[{"name":"listId","type":"uint256","internalType":"uint256"}],"outputs":[{"name":"handle","type":"string","internalType":"string"},{"name":"name","type":"string","internalType":"string"},{"name":"hash","type":"string","internalType":"string"},{"name":"description","type":"string","internalType":"string"},{"name":"isPrimaryListForToken","type":"bool","internalType":"bool"},{"name":"tokenIDs","type":"uint256[]","internalType":"uint256[]"}],"stateMutability":"view"},{"type":"function","name":"getSublistData","inputs":[{"name":"sublistId","type":"uint256","internalType":"uint256"},{"name":"key","type":"string","internalType":"string"}],"outputs":[{"name":"","type":"string","internalType":"string"}],"stateMutability":"view"},{"type":"function","name":"getSublistInfo","inputs":[{"name":"sublistId","type":"uint256","internalType":"uint256"}],"outputs":[{"name":"name","type":"string","internalType":"string"},{"name":"description","type":"string","internalType":"string"},{"name":"listHash","type":"string","internalType":"string"},{"name":"owner","type":"address","internalType":"address"}],"stateMutability":"view"},{"type":"function","name":"getSublistOwner","inputs":[{"name":"sublistId","type":"uint256","internalType":"uint256"}],"outputs":[{"name":"","type":"address","internalType":"address"}],"stateMutability":"view"},{"type":"function","name":"getUserSublists","inputs":[{"name":"user","type":"address","internalType":"address"}],"outputs":[{"name":"","type":"uint256[]","internalType":"uint256[]"}],"stateMutability":"view"},{"type":"function","name":"hashToListId","inputs":[{"name":"","type":"string","internalType":"string"}],"outputs":[{"name":"","type":"uint256","internalType":"uint256"}],"stateMutability":"view"},{"type":"function","name":"isAdmin","inputs":[{"name":"account","type":"address","internalType":"address"}],"outputs":[{"name":"","type":"bool","internalType":"bool"}],"stateMutability":"view"},{"type":"function","name":"isAdminOrManager","inputs":[{"name":"account","type":"address","internalType":"address"}],"outputs":[{"name":"","type":"bool","internalType":"bool"}],"stateMutability":"view"},{"type":"function","name":"isManager","inputs":[{"name":"account","type":"address","internalType":"address"}],"outputs":[{"name":"","type":"bool","internalType":"bool"}],"stateMutability":"view"},{"type":"function","name":"l2StorageManager","inputs":[],"outputs":[{"name":"","type":"address","internalType":"contract IL2StorageManager"}],"stateMutability":"view"},{"type":"function","name":"lists","inputs":[{"name":"","type":"uint256","internalType":"uint256"}],"outputs":[{"name":"handle","type":"string","internalType":"string"},{"name":"name","type":"string","internalType":"string"},{"name":"hash","type":"string","internalType":"string"},{"name":"description","type":"string","internalType":"string"},{"name":"isPrimaryListForToken","type":"bool","internalType":"bool"},{"name":"nonce","type":"uint256","internalType":"uint256"},{"name":"creator","type":"address","internalType":"address"}],"stateMutability":"view"},{"type":"function","name":"nextListId","inputs":[],"outputs":[{"name":"","type":"uint256","internalType":"uint256"}],"stateMutability":"view"},{"type":"function","name":"nextSublistId","inputs":[],"outputs":[{"name":"","type":"uint256","internalType":"uint256"}],"stateMutability":"view"},{"type":"function","name":"owner","inputs":[],"outputs":[{"name":"","type":"address","internalType":"address"}],"stateMutability":"view"},{"type":"function","name":"renounceOwnership","inputs":[],"outputs":[],"stateMutability":"nonpayable"},{"type":"function","name":"setL2StorageManager","inputs":[{"name":"manager","type":"address","internalType":"address"}],"outputs":[],"stateMutability":"nonpayable"},{"type":"function","name":"setListData","inputs":[{"name":"listId","type":"uint256","internalType":"uint256"},{"name":"key","type":"string","internalType":"string"},{"name":"value","type":"string","internalType":"string"}],"outputs":[],"stateMutability":"nonpayable"},{"type":"function","name":"setListDataBatch","inputs":[{"name":"listId","type":"uint256","internalType":"uint256"},{"name":"keys","type":"string[]","internalType":"string[]"},{"name":"values","type":"string[]","internalType":"string[]"}],"outputs":[],"stateMutability":"nonpayable"},{"type":"function","name":"setSublistData","inputs":[{"name":"sublistId","type":"uint256","internalType":"uint256"},{"name":"key","type":"string","internalType":"string"},{"name":"value","type":"string","internalType":"string"}],"outputs":[],"stateMutability":"nonpayable"},{"type":"function","name":"setSublistDataBatch","inputs":[{"name":"sublistId","type":"uint256","internalType":"uint256"},{"name":"keys","type":"string[]","internalType":"string[]"},{"name":"values","type":"string[]","internalType":"string[]"}],"outputs":[],"stateMutability":"nonpayable"},{"type":"function","name":"sublists","inputs":[{"name":"","type":"uint256","internalType":"uint256"}],"outputs":[{"name":"name","type":"string","internalType":"string"},{"name":"description","type":"string","internalType":"string"},{"name":"listHash","type":"string","internalType":"string"},{"name":"nonce","type":"uint256","internalType":"uint256"},{"name":"owner","type":"address","internalType":"address"}],"stateMutability":"view"},{"type":"function","name":"transferOwnership","inputs":[{"name":"newOwner","type":"address","internalType":"address"}],"outputs":[],"stateMutability":"nonpayable"},{"type":"function","name":"userSublists","inputs":[{"name":"","type":"address","internalType":"address"},{"name":"","type":"uint256","internalType":"uint256"}],"outputs":[{"name":"","type":"uint256","internalType":"uint256"}],"stateMutability":"view"},{"type":"event","name":"L2StorageManagerSet","inputs":[{"name":"newManager","type":"address","indexed":true,"internalType":"address"}],"anonymous":false},{"type":"event","name":"ListCreated","inputs":[{"name":"listId","type":"uint256","indexed":true,"internalType":"uint256"},{"name":"creator","type":"address","indexed":true,"internalType":"address"},{"name":"handle","type":"string","indexed":false,"internalType":"string"},{"name":"name","type":"string","indexed":false,"internalType":"string"},{"name":"hash","type":"string","indexed":false,"internalType":"string"}],"anonymous":false},{"type":"event","name":"ListUpdated","inputs":[{"name":"listId","type":"uint256","indexed":true,"internalType":"uint256"},{"name":"key","type":"string","indexed":false,"internalType":"string"},{"name":"value","type":"string","indexed":false,"internalType":"string"},{"name":"nonce","type":"uint256","indexed":false,"internalType":"uint256"}],"anonymous":false},{"type":"event","name":"OwnershipTransferred","inputs":[{"name":"previousOwner","type":"address","indexed":true,"internalType":"address"},{"name":"newOwner","type":"address","indexed":true,"internalType":"address"}],"anonymous":false},{"type":"event","name":"SublistCreated","inputs":[{"name":"sublistId","type":"uint256","indexed":true,"internalType":"uint256"},{"name":"owner","type":"address","indexed":true,"internalType":"address"},{"name":"name","type":"string","indexed":false,"internalType":"string"},{"name":"listHash","type":"string","indexed":false,"internalType":"string"}],"anonymous":false},{"type":"event","name":"SublistUpdated","inputs":[{"name":"sublistId","type":"uint256","indexed":true,"internalType":"uint256"},{"name":"key","type":"string","indexed":false,"internalType":"string"},{"name":"value","type":"string","indexed":false,"internalType":"string"},{"name":"nonce","type":"uint256","indexed":false,"internalType":"uint256"}],"anonymous":false},{"type":"error","name":"OwnableInvalidOwner","inputs":[{"name":"owner","type":"address","internalType":"address"}]},{"type":"error","name":"OwnableUnauthorizedAccount","inputs":[{"name":"account","type":"address","internalType":"address"}]}],"bytecode":{"object":"0x6080604052600460065560016007553480156200001b57600080fd5b5060405162002f7538038062002f758339810160408190526200003e9162000119565b8082806001600160a01b0381166200007057604051631e4fbdf760e01b81526000600482015260240160405180910390fd5b6200007b81620000ac565b50600180546001600160a01b0319166001600160a01b038416179055620000a281620000ac565b5050505062000151565b600080546001600160a01b038381166001600160a01b0319831681178455604051919092169283917f8be0079c531659141344cd1fd0a4f28419497f9722a3daafe3b4186f6b6457e09190a35050565b80516001600160a01b03811681146200011457600080fd5b919050565b600080604083850312156200012d57600080fd5b6200013883620000fc565b91506200014860208401620000fc565b90509250929050565b612e1480620001616000396000f3fe608060405234801561001057600080fd5b50600436106101cf5760003560e01c8063a0ea965911610104578063e370434c116100a2578063f2fde38b11610071578063f2fde38b1461045e578063f3ae241514610471578063f4aca98814610484578063f5a538521461049757600080fd5b8063e370434c14610400578063ed52273d14610413578063efc7377a14610426578063f164a2201461044b57600080fd5b8063ba468068116100de578063ba468068146103bc578063c03ec933146103c4578063c57e4c79146103cd578063db2c0240146103e057600080fd5b8063a0ea965914610352578063a8e30cd11461037d578063ac7ca525146103a957600080fd5b80636cfacd731161017157806377ed39c21161014b57806377ed39c2146102e05780638480549b146102f75780638da5cb5b1461031b57806396102cf41461032c57600080fd5b80636cfacd73146102b25780636d767708146102c5578063715018a6146102d857600080fd5b806327a42cff116101ad57806327a42cff146102355780632e2e61e214610248578063570d93241461028c5780636308b2b91461029f57600080fd5b80631d32a922146101d457806322dab0be146101e957806324d7806c14610212575b600080fd5b6101e76101e23660046123c3565b6104ba565b005b6101fc6101f7366004612430565b610573565b60405161020991906124c7565b60405180910390f35b6102256102203660046124f6565b610666565b6040519015158152602001610209565b6101e76102433660046123c3565b6106d6565b610274610256366004612511565b6000908152600260205260409020600701546001600160a01b031690565b6040516001600160a01b039091168152602001610209565b6101e761029a3660046124f6565b6108b8565b6101e76102ad3660046125de565b61090a565b6101fc6102c0366004612430565b610ab1565b600154610274906001600160a01b031681565b6101e7610afd565b6102e960075481565b604051908152602001610209565b61030a610305366004612511565b610b11565b604051610209959493929190612641565b6000546001600160a01b0316610274565b61033f61033a366004612511565b610ce1565b604051610209979695949392919061269d565b6102e9610360366004612713565b805160208183018101805160048252928201919093012091525481565b61027461038b366004612511565b6000908152600360205260409020600401546001600160a01b031690565b6101fc6103b73660046127ab565b610f4a565b6102e96110cb565b6102e960065481565b6102e96103db366004612858565b61113e565b6103f36103ee3660046124f6565b61116f565b60405161020991906128bd565b61022561040e3660046124f6565b6111db565b6102e96104213660046128de565b611282565b610439610434366004612511565b61129d565b604051610209969594939291906129a0565b6102e96104593660046124f6565b61157c565b6101e761046c3660046124f6565b6115eb565b61022561047f3660046124f6565b611629565b6101e76104923660046125de565b61165c565b6104aa6104a5366004612511565b611923565b6040516102099493929190612a16565b60008381526002602052604090206104d183611b0e565b156104e6576104e1818484611bc6565b610515565b8181600801846040516104f99190612a69565b908152602001604051809103902090816105139190612b0a565b505b6000816005016000815461052890612bca565b9190508190559050847fa76768e6cfe4c946fa3950a5e40bcecf5c48ab912163aff713066b388edecf5585858460405161056493929190612bf1565b60405180910390a25050505050565b606061057e82611b0e565b156105a257600083815260026020526040902061059b9083611cea565b9050610660565b60026000848152602001908152602001600020600801826040516105c69190612a69565b908152602001604051809103902080546105df90612a85565b80601f016020809104026020016040519081016040528092919081815260200182805461060b90612a85565b80156106585780601f1061062d57610100808354040283529160200191610658565b820191906000526020600020905b81548152906001019060200180831161063b57829003601f168201915b505050505090505b92915050565b600154604051630935e01b60e21b81526001600160a01b03838116600483015260009216906324d7806c906024015b602060405180830381865afa1580156106b2573d6000803e3d6000fd5b505050506040513d601f19601f820116820180604052508101906106609190612c27565b60008381526003602052604090206004015483906001600160a01b03163314806107675750600154604051630935e01b60e21b81523360048201526001600160a01b03909116906324d7806c90602401602060405180830381865afa158015610743573d6000803e3d6000fd5b505050506040513d601f19601f820116820180604052508101906107679190612c27565b806107d9575060015460405163f3ae241560e01b81523360048201526001600160a01b039091169063f3ae241590602401602060405180830381865afa1580156107b5573d6000803e3d6000fd5b505050506040513d601f19601f820116820180604052508101906107d99190612c27565b6107fe5760405162461bcd60e51b81526004016107f590612c44565b60405180910390fd5b600084815260036020526040902061081584611ef0565b1561082a57610825818585611f51565b610859565b82816005018560405161083d9190612a69565b908152602001604051809103902090816108579190612b0a565b505b6000816003016000815461086c90612bca565b9190508190559050857fc926a21643ef67a6aed037bd5e08c70bd09efecf715d67a4f427c8e5415713b48686846040516108a893929190612bf1565b60405180910390a2505050505050565b6108c0611fe2565b600180546001600160a01b0319166001600160a01b0383169081179091556040517fa3567760380494e9d4b62e18aa13c525c9460c4688cb0233faa27971c488d02f90600090a250565b805182511461092b5760405162461bcd60e51b81526004016107f590612c87565b6000838152600260205260408120905b8351811015610aaa5761096684828151811061095957610959612cc8565b6020026020010151611b0e565b156109ad576109a88285838151811061098157610981612cc8565b602002602001015185848151811061099b5761099b612cc8565b6020026020010151611bc6565b610a0e565b8281815181106109bf576109bf612cc8565b6020026020010151826008018583815181106109dd576109dd612cc8565b60200260200101516040516109f29190612a69565b90815260200160405180910390209081610a0c9190612b0a565b505b60008260050160008154610a2190612bca565b9190508190559050857fa76768e6cfe4c946fa3950a5e40bcecf5c48ab912163aff713066b388edecf55868481518110610a5d57610a5d612cc8565b6020026020010151868581518110610a7757610a77612cc8565b602002602001015184604051610a8f93929190612bf1565b60405180910390a25080610aa281612bca565b91505061093b565b5050505050565b6060610abc82611ef0565b15610ad957600083815260036020526040902061059b908361200f565b60036000848152602001908152602001600020600501826040516105c69190612a69565b610b05611fe2565b610b0f60006120ef565b565b600360205260009081526040902080548190610b2c90612a85565b80601f0160208091040260200160405190810160405280929190818152602001828054610b5890612a85565b8015610ba55780601f10610b7a57610100808354040283529160200191610ba5565b820191906000526020600020905b815481529060010190602001808311610b8857829003601f168201915b505050505090806001018054610bba90612a85565b80601f0160208091040260200160405190810160405280929190818152602001828054610be690612a85565b8015610c335780601f10610c0857610100808354040283529160200191610c33565b820191906000526020600020905b815481529060010190602001808311610c1657829003601f168201915b505050505090806002018054610c4890612a85565b80601f0160208091040260200160405190810160405280929190818152602001828054610c7490612a85565b8015610cc15780601f10610c9657610100808354040283529160200191610cc1565b820191906000526020600020905b815481529060010190602001808311610ca457829003601f168201915b5050505060038301546004909301549192916001600160a01b0316905085565b600260205260009081526040902080548190610cfc90612a85565b80601f0160208091040260200160405190810160405280929190818152602001828054610d2890612a85565b8015610d755780601f10610d4a57610100808354040283529160200191610d75565b820191906000526020600020905b815481529060010190602001808311610d5857829003601f168201915b505050505090806001018054610d8a90612a85565b80601f0160208091040260200160405190810160405280929190818152602001828054610db690612a85565b8015610e035780601f10610dd857610100808354040283529160200191610e03565b820191906000526020600020905b815481529060010190602001808311610de657829003601f168201915b505050505090806002018054610e1890612a85565b80601f0160208091040260200160405190810160405280929190818152602001828054610e4490612a85565b8015610e915780601f10610e6657610100808354040283529160200191610e91565b820191906000526020600020905b815481529060010190602001808311610e7457829003601f168201915b505050505090806003018054610ea690612a85565b80601f0160208091040260200160405190810160405280929190818152602001828054610ed290612a85565b8015610f1f5780601f10610ef457610100808354040283529160200191610f1f565b820191906000526020600020905b815481529060010190602001808311610f0257829003601f168201915b5050505060048301546005840154600790940154929360ff909116929091506001600160a01b031687565b6060600483604051610f5c9190612a69565b908152602001604051809103902054600003610f8257610f8085868685600061213f565b505b600483604051610f929190612a69565b908152602001604051809103902054600003610ffb5760405162461bcd60e51b815260206004820152602260248201527f4c69737420776974682074686973206861736820646f6573206e6f74206578696044820152611cdd60f21b60648201526084016107f5565b600780546000918261100c83612bca565b9091555060008181526003602052604090209091508061102c8882612b0a565b506001810161103b8782612b0a565b506002810161104a8682612b0a565b506004810180546001600160a01b031916339081179091556000818152600560209081526040808320805460018101825590845291909220018490555183907feb666b1d8965c8831464630cbec8145afef558a3a0da15f61f4d924e6582a3e5906110b8908b908a90612cde565b60405180910390a3509295945050505050565b60015460408051631748d00d60e31b815290516000926001600160a01b03169163ba4680689160048083019260209291908290030181865afa158015611115573d6000803e3d6000fd5b505050506040513d601f19601f820116820180604052508101906111399190612d0c565b905090565b6005602052816000526040600020818154811061115a57600080fd5b90600052602060002001600091509150505481565b6001600160a01b0381166000908152600560209081526040918290208054835181840281018401909452808452606093928301828280156111cf57602002820191906000526020600020905b8154815260200190600101908083116111bb575b50505050509050919050565b600154604051630935e01b60e21b81526001600160a01b03838116600483015260009216906324d7806c90602401602060405180830381865afa158015611226573d6000803e3d6000fd5b505050506040513d601f19601f8201168201806040525081019061124a9190612c27565b80610660575060015460405163f3ae241560e01b81526001600160a01b0384811660048301529091169063f3ae241590602401610695565b600080611292878787878761213f565b979650505050505050565b606080606080600060606000600260008981526020019081526020016000209050806000018160010182600201836003018460040160009054906101000a900460ff16856006018580546112f090612a85565b80601f016020809104026020016040519081016040528092919081815260200182805461131c90612a85565b80156113695780601f1061133e57610100808354040283529160200191611369565b820191906000526020600020905b81548152906001019060200180831161134c57829003601f168201915b5050505050955084805461137c90612a85565b80601f01602080910402602001604051908101604052809291908181526020018280546113a890612a85565b80156113f55780601f106113ca576101008083540402835291602001916113f5565b820191906000526020600020905b8154815290600101906020018083116113d857829003601f168201915b5050505050945083805461140890612a85565b80601f016020809104026020016040519081016040528092919081815260200182805461143490612a85565b80156114815780601f1061145657610100808354040283529160200191611481565b820191906000526020600020905b81548152906001019060200180831161146457829003601f168201915b5050505050935082805461149490612a85565b80601f01602080910402602001604051908101604052809291908181526020018280546114c090612a85565b801561150d5780601f106114e25761010080835404028352916020019161150d565b820191906000526020600020905b8154815290600101906020018083116114f057829003601f168201915b505050505092508080548060200260200160405190810160405280929190818152602001828054801561155f57602002820191906000526020600020905b81548152602001906001019080831161154b575b505050505090509650965096509650965096505091939550919395565b60015460405163078b251160e51b81526001600160a01b038381166004830152600092169063f164a22090602401602060405180830381865afa1580156115c7573d6000803e3d6000fd5b505050506040513d601f19601f820116820180604052508101906106609190612d0c565b6115f3611fe2565b6001600160a01b03811661161d57604051631e4fbdf760e01b8152600060048201526024016107f5565b611626816120ef565b50565b60015460405163f3ae241560e01b81526001600160a01b038381166004830152600092169063f3ae241590602401610695565b60008381526003602052604090206004015483906001600160a01b03163314806116ed5750600154604051630935e01b60e21b81523360048201526001600160a01b03909116906324d7806c90602401602060405180830381865afa1580156116c9573d6000803e3d6000fd5b505050506040513d601f19601f820116820180604052508101906116ed9190612c27565b8061175f575060015460405163f3ae241560e01b81523360048201526001600160a01b039091169063f3ae241590602401602060405180830381865afa15801561173b573d6000803e3d6000fd5b505050506040513d601f19601f8201168201806040525081019061175f9190612c27565b61177b5760405162461bcd60e51b81526004016107f590612c44565b815183511461179c5760405162461bcd60e51b81526004016107f590612c87565b6000848152600360205260408120905b845181101561191b576117d78582815181106117ca576117ca612cc8565b6020026020010151611ef0565b1561181e57611819828683815181106117f2576117f2612cc8565b602002602001015186848151811061180c5761180c612cc8565b6020026020010151611f51565b61187f565b83818151811061183057611830612cc8565b60200260200101518260050186838151811061184e5761184e612cc8565b60200260200101516040516118639190612a69565b9081526020016040518091039020908161187d9190612b0a565b505b6000826003016000815461189290612bca565b9190508190559050867fc926a21643ef67a6aed037bd5e08c70bd09efecf715d67a4f427c8e5415713b48784815181106118ce576118ce612cc8565b60200260200101518785815181106118e8576118e8612cc8565b60200260200101518460405161190093929190612bf1565b60405180910390a2508061191381612bca565b9150506117ac565b505050505050565b60008181526003602052604081206004810154815460609384938493919290918291600183019160028401916001600160a01b0390911690849061196690612a85565b80601f016020809104026020016040519081016040528092919081815260200182805461199290612a85565b80156119df5780601f106119b4576101008083540402835291602001916119df565b820191906000526020600020905b8154815290600101906020018083116119c257829003601f168201915b505050505093508280546119f290612a85565b80601f0160208091040260200160405190810160405280929190818152602001828054611a1e90612a85565b8015611a6b5780601f10611a4057610100808354040283529160200191611a6b565b820191906000526020600020905b815481529060010190602001808311611a4e57829003601f168201915b50505050509250818054611a7e90612a85565b80601f0160208091040260200160405190810160405280929190818152602001828054611aaa90612a85565b8015611af75780601f10611acc57610100808354040283529160200191611af7565b820191906000526020600020905b815481529060010190602001808311611ada57829003601f168201915b505050505091509450945094509450509193509193565b805160208201206000907facff166be659c8a81d17216edbc79eef45eb925a15f37d9542c3a0fbbfd87d4a811480611b535750600080516020612dbf83398151915281145b80611b7d57507f33027547537d35728a741470df1ccf65de10b454ca0def7c5c20b257b7b8d16181145b80611b955750600080516020612d9f83398151915281145b80611bbf57507f446bc9fc6e95f7492fadf29e79cf679af7f3b4f49c3462ead35ba73f5fc9a31381145b9392505050565b815160208301207f5300e99419a63757e2e8de9124386110ba146da5ea0c826abd3c5f04402782b68101611c055783611bff8382612b0a565b50611ce4565b600080516020612dbf8339815191528103611c285760018401611bff8382612b0a565b7f33027547537d35728a741470df1ccf65de10b454ca0def7c5c20b257b7b8d1618103611c5d5760028401611bff8382612b0a565b600080516020612d9f8339815191528103611c805760038401611bff8382612b0a565b7f446bc9fc6e95f7492fadf29e79cf679af7f3b4f49c3462ead35ba73f5fc9a3138103611ce4578151602083012060048501805460ff19167f6273151f959616268004b58dbb21e5c851b7b8d04498b4aabee12291d22fc034929092149190911790555b50505050565b805160208201206060907f5300e99419a63757e2e8de9124386110ba146da5ea0c826abd3c5f04402782b68101611dae5783548490611d2890612a85565b80601f0160208091040260200160405190810160405280929190818152602001828054611d5490612a85565b8015611da15780601f10611d7657610100808354040283529160200191611da1565b820191906000526020600020905b815481529060010190602001808311611d8457829003601f168201915b5050505050915050610660565b600080516020612dbf8339815191528103611dd257836001018054611d2890612a85565b7f33027547537d35728a741470df1ccf65de10b454ca0def7c5c20b257b7b8d1618103611e0857836002018054611d2890612a85565b600080516020612d9f8339815191528103611e2c57836003018054611d2890612a85565b7f446bc9fc6e95f7492fadf29e79cf679af7f3b4f49c3462ead35ba73f5fc9a3138103611ea857600484015460ff16611e82576040518060400160405280600581526020016466616c736560d81b815250611ea0565b604051806040016040528060048152602001637472756560e01b8152505b915050610660565b60405162461bcd60e51b815260206004820152601c60248201527f496e76616c6964206c697374207374727563742070726f70657274790000000060448201526064016107f5565b80516020820120600090600080516020612dbf833981519152811480611f235750600080516020612d9f83398151915281145b80611bbf57507f246645cc6bb5700db859acc8edbada77d94439a37be6eb0eee9b6bc0a7fc0a581492915050565b815160208301207fdc9eba7c981969c9c04338f8882f81442dc6b17602f52350eb805332e2d6b2a08101611f8a5783611bff8382612b0a565b600080516020612d9f8339815191528103611fad5760018401611bff8382612b0a565b7f246645cc6bb5700db859acc8edbada77d94439a37be6eb0eee9b6bc0a7fc0a588103611ce45760028401610aaa8382612b0a565b6000546001600160a01b03163314610b0f5760405163118cdaa760e01b81523360048201526024016107f5565b805160208201206060907fdc9eba7c981969c9c04338f8882f81442dc6b17602f52350eb805332e2d6b2a0810161204d5783548490611d2890612a85565b600080516020612d9f833981519152810361207157836001018054611d2890612a85565b7f246645cc6bb5700db859acc8edbada77d94439a37be6eb0eee9b6bc0a7fc0a5881036120a757836002018054611d2890612a85565b60405162461bcd60e51b815260206004820152601f60248201527f496e76616c6964207375626c697374207374727563742070726f70657274790060448201526064016107f5565b600080546001600160a01b038381166001600160a01b0319831681178455604051919092169283917f8be0079c531659141344cd1fd0a4f28419497f9722a3daafe3b4186f6b6457e09190a35050565b600680546000918291908261215383612bca565b909155506000818152600260205260409020909150806121738982612b0a565b50600181016121828882612b0a565b50600381016121918782612b0a565b5060048101805460ff191685151517905584516121b790600683019060208801906122ac565b506007810180546001600160a01b0319163317905560006121d786612283565b9050600282016121e78282612b0a565b506004816040516121f89190612a69565b908152602001604051809103902054600003612230578260048260405161221f9190612a69565b908152604051908190036020019020555b336001600160a01b0316837fac3e1763f5d171e50f55fd2f92f855382770ab186bdec033ff441d4318b69c278b8b8560405161226e93929190612d25565b60405180910390a35090979650505050505050565b6060816040516020016122969190612d68565b6040516020818303038152906040529050919050565b8280548282559060005260206000209081019282156122e7579160200282015b828111156122e75782518255916020019190600101906122cc565b506122f39291506122f7565b5090565b5b808211156122f357600081556001016122f8565b634e487b7160e01b600052604160045260246000fd5b604051601f8201601f1916810167ffffffffffffffff8111828210171561234b5761234b61230c565b604052919050565b600082601f83011261236457600080fd5b813567ffffffffffffffff81111561237e5761237e61230c565b612391601f8201601f1916602001612322565b8181528460208386010111156123a657600080fd5b816020850160208301376000918101602001919091529392505050565b6000806000606084860312156123d857600080fd5b83359250602084013567ffffffffffffffff808211156123f757600080fd5b61240387838801612353565b9350604086013591508082111561241957600080fd5b5061242686828701612353565b9150509250925092565b6000806040838503121561244357600080fd5b82359150602083013567ffffffffffffffff81111561246157600080fd5b61246d85828601612353565b9150509250929050565b60005b8381101561249257818101518382015260200161247a565b50506000910152565b600081518084526124b3816020860160208601612477565b601f01601f19169290920160200192915050565b602081526000611bbf602083018461249b565b80356001600160a01b03811681146124f157600080fd5b919050565b60006020828403121561250857600080fd5b611bbf826124da565b60006020828403121561252357600080fd5b5035919050565b600067ffffffffffffffff8211156125445761254461230c565b5060051b60200190565b600082601f83011261255f57600080fd5b8135602061257461256f8361252a565b612322565b82815260059290921b8401810191818101908684111561259357600080fd5b8286015b848110156125d357803567ffffffffffffffff8111156125b75760008081fd5b6125c58986838b0101612353565b845250918301918301612597565b509695505050505050565b6000806000606084860312156125f357600080fd5b83359250602084013567ffffffffffffffff8082111561261257600080fd5b61261e8783880161254e565b9350604086013591508082111561263457600080fd5b506124268682870161254e565b60a08152600061265460a083018861249b565b8281036020840152612666818861249b565b9050828103604084015261267a818761249b565b606084019590955250506001600160a01b03919091166080909101529392505050565b60e0815260006126b060e083018a61249b565b82810360208401526126c2818a61249b565b905082810360408401526126d6818961249b565b905082810360608401526126ea818861249b565b9515156080840152505060a08101929092526001600160a01b031660c090910152949350505050565b60006020828403121561272557600080fd5b813567ffffffffffffffff81111561273c57600080fd5b61274884828501612353565b949350505050565b600082601f83011261276157600080fd5b8135602061277161256f8361252a565b82815260059290921b8401810191818101908684111561279057600080fd5b8286015b848110156125d35780358352918301918301612794565b600080600080608085870312156127c157600080fd5b843567ffffffffffffffff808211156127d957600080fd5b6127e588838901612353565b955060208701359150808211156127fb57600080fd5b61280788838901612353565b9450604087013591508082111561281d57600080fd5b61282988838901612353565b9350606087013591508082111561283f57600080fd5b5061284c87828801612750565b91505092959194509250565b6000806040838503121561286b57600080fd5b612874836124da565b946020939093013593505050565b600081518084526020808501945080840160005b838110156128b257815187529582019590820190600101612896565b509495945050505050565b602081526000611bbf6020830184612882565b801515811461162657600080fd5b600080600080600060a086880312156128f657600080fd5b853567ffffffffffffffff8082111561290e57600080fd5b61291a89838a01612353565b9650602088013591508082111561293057600080fd5b61293c89838a01612353565b9550604088013591508082111561295257600080fd5b61295e89838a01612353565b9450606088013591508082111561297457600080fd5b5061298188828901612750565b9250506080860135612992816128d0565b809150509295509295909350565b60c0815260006129b360c083018961249b565b82810360208401526129c5818961249b565b905082810360408401526129d9818861249b565b905082810360608401526129ed818761249b565b9050841515608084015282810360a0840152612a098185612882565b9998505050505050505050565b608081526000612a29608083018761249b565b8281036020840152612a3b818761249b565b90508281036040840152612a4f818661249b565b91505060018060a01b038316606083015295945050505050565b60008251612a7b818460208701612477565b9190910192915050565b600181811c90821680612a9957607f821691505b602082108103612ab957634e487b7160e01b600052602260045260246000fd5b50919050565b601f821115612b0557600081815260208120601f850160051c81016020861015612ae65750805b601f850160051c820191505b8181101561191b57828155600101612af2565b505050565b815167ffffffffffffffff811115612b2457612b2461230c565b612b3881612b328454612a85565b84612abf565b602080601f831160018114612b6d5760008415612b555750858301515b600019600386901b1c1916600185901b17855561191b565b600085815260208120601f198616915b82811015612b9c57888601518255948401946001909101908401612b7d565b5085821015612bba5787850151600019600388901b60f8161c191681555b5050505050600190811b01905550565b600060018201612bea57634e487b7160e01b600052601160045260246000fd5b5060010190565b606081526000612c04606083018661249b565b8281036020840152612c16818661249b565b915050826040830152949350505050565b600060208284031215612c3957600080fd5b8151611bbf816128d0565b60208082526023908201527f4e6f7420617574686f72697a656420746f20656469742074686973207375626c6040820152621a5cdd60ea1b606082015260800190565b60208082526021908201527f4d69736d617463686564206b65797320616e642076616c7565732061727261796040820152607360f81b606082015260800190565b634e487b7160e01b600052603260045260246000fd5b604081526000612cf1604083018561249b565b8281036020840152612d03818561249b565b95945050505050565b600060208284031215612d1e57600080fd5b5051919050565b606081526000612d38606083018661249b565b8281036020840152612d4a818661249b565b90508281036040840152612d5e818561249b565b9695505050505050565b815160009082906020808601845b83811015612d9257815185529382019390820190600101612d76565b5092969550505050505056fe1596dc38e2ac5a6ddc5e019af4adcc1e017a04f510d57e69d6879d5d2996bb8e2361458367e696363fbcc70777d07ebbd2394e89fd0adcaf147faccd1d294d60a26469706673582212204cf988b42231483cbcd652903383d944a8dda01531096807e69d838c9866e3f464736f6c63430008140033","linkReferences":{}},"methodIdentifiers":{"createList(string,string,string,uint256[],bool)":"ed52273d","createSublist(string,string,string,uint256[])":"ac7ca525","getApprovalPower(address)":"f164a220","getApprovalThreshold()":"ba468068","getListCreator(uint256)":"2e2e61e2","getListData(uint256,string)":"22dab0be","getListInfo(uint256)":"efc7377a","getSublistData(uint256,string)":"6cfacd73","getSublistInfo(uint256)":"f5a53852","getSublistOwner(uint256)":"a8e30cd1","getUserSublists(address)":"db2c0240","hashToListId(string)":"a0ea9659","isAdmin(address)":"24d7806c","isAdminOrManager(address)":"e370434c","isManager(address)":"f3ae2415","l2StorageManager()":"6d767708","lists(uint256)":"96102cf4","nextListId()":"c03ec933","nextSublistId()":"77ed39c2","owner()":"8da5cb5b","renounceOwnership()":"715018a6","setL2StorageManager(address)":"570d9324","setListData(uint256,string,string)":"1d32a922","setListDataBatch(uint256,string[],string[])":"6308b2b9","setSublistData(uint256,string,string)":"27a42cff","setSublistDataBatch(uint256,string[],string[])":"f4aca988","sublists(uint256)":"8480549b","transferOwnership(address)":"f2fde38b","userSublists(address,uint256)":"c57e4c79"},"id":4}