{"abi":[{"type":"constructor","inputs":[{"name":"initialOwner","type":"address","internalType":"address"},{"name":"managerContract","type":"address","internalType":"address"}],"stateMutability":"nonpayable"},{"type":"function","name":"approvalPower","inputs":[{"name":"","type":"address","internalType":"address"}],"outputs":[{"name":"","type":"uint256","internalType":"uint256"}],"stateMutability":"view"},{"type":"function","name":"approvalThreshold","inputs":[],"outputs":[{"name":"","type":"uint256","internalType":"uint256"}],"stateMutability":"view"},{"type":"function","name":"approveUpdate","inputs":[{"name":"tokenID","type":"uint256","internalType":"uint256"},{"name":"updateId","type":"uint256","internalType":"uint256"},{"name":"approver","type":"address","internalType":"address"}],"outputs":[],"stateMutability":"nonpayable"},{"type":"function","name":"getApprovalPower","inputs":[{"name":"account","type":"address","internalType":"address"}],"outputs":[{"name":"","type":"uint256","internalType":"uint256"}],"stateMutability":"view"},{"type":"function","name":"getApprovalThreshold","inputs":[],"outputs":[{"name":"","type":"uint256","internalType":"uint256"}],"stateMutability":"view"},{"type":"function","name":"getCurrentApprovalScore","inputs":[{"name":"tokenID","type":"uint256","internalType":"uint256"},{"name":"updateId","type":"uint256","internalType":"uint256"}],"outputs":[{"name":"","type":"uint256","internalType":"uint256"}],"stateMutability":"view"},{"type":"function","name":"getTokenData","inputs":[{"name":"tokenID","type":"uint256","internalType":"uint256"},{"name":"key","type":"string","internalType":"string"}],"outputs":[{"name":"","type":"string","internalType":"string"}],"stateMutability":"view"},{"type":"function","name":"getUpdateData","inputs":[{"name":"tokenID","type":"uint256","internalType":"uint256"},{"name":"updateId","type":"uint256","internalType":"uint256"},{"name":"key","type":"string","internalType":"string"}],"outputs":[{"name":"","type":"string","internalType":"string"}],"stateMutability":"view"},{"type":"function","name":"isAdmin","inputs":[{"name":"account","type":"address","internalType":"address"}],"outputs":[{"name":"","type":"bool","internalType":"bool"}],"stateMutability":"view"},{"type":"function","name":"isAdminOrManager","inputs":[{"name":"account","type":"address","internalType":"address"}],"outputs":[{"name":"","type":"bool","internalType":"bool"}],"stateMutability":"view"},{"type":"function","name":"isManager","inputs":[{"name":"account","type":"address","internalType":"address"}],"outputs":[{"name":"","type":"bool","internalType":"bool"}],"stateMutability":"view"},{"type":"function","name":"l2StorageManager","inputs":[],"outputs":[{"name":"","type":"address","internalType":"contract IL2StorageManager"}],"stateMutability":"view"},{"type":"function","name":"nextTokenId","inputs":[],"outputs":[{"name":"","type":"uint256","internalType":"uint256"}],"stateMutability":"view"},{"type":"function","name":"owner","inputs":[],"outputs":[{"name":"","type":"address","internalType":"address"}],"stateMutability":"view"},{"type":"function","name":"proposeUpdate","inputs":[{"name":"tokenID","type":"uint256","internalType":"uint256"},{"name":"keys","type":"string[]","internalType":"string[]"},{"name":"values","type":"string[]","internalType":"string[]"}],"outputs":[],"stateMutability":"nonpayable"},{"type":"function","name":"proposedUpdates","inputs":[{"name":"","type":"uint256","internalType":"uint256"},{"name":"","type":"uint256","internalType":"uint256"}],"outputs":[{"name":"approvalScore","type":"uint256","internalType":"uint256"},{"name":"isApplied","type":"bool","internalType":"bool"},{"name":"dataSize","type":"uint256","internalType":"uint256"}],"stateMutability":"view"},{"type":"function","name":"renounceOwnership","inputs":[],"outputs":[],"stateMutability":"nonpayable"},{"type":"function","name":"setL2StorageManager","inputs":[{"name":"manager","type":"address","internalType":"address"}],"outputs":[],"stateMutability":"nonpayable"},{"type":"function","name":"setTokenData","inputs":[{"name":"tokenID","type":"uint256","internalType":"uint256"},{"name":"key","type":"string","internalType":"string"},{"name":"value","type":"string","internalType":"string"}],"outputs":[],"stateMutability":"nonpayable"},{"type":"function","name":"setTokenDataBatch","inputs":[{"name":"tokenID","type":"uint256","internalType":"uint256"},{"name":"keys","type":"string[]","internalType":"string[]"},{"name":"values","type":"string[]","internalType":"string[]"}],"outputs":[],"stateMutability":"nonpayable"},{"type":"function","name":"tokens","inputs":[{"name":"","type":"uint256","internalType":"uint256"}],"outputs":[{"name":"name","type":"string","internalType":"string"},{"name":"symbol","type":"string","internalType":"string"},{"name":"description","type":"string","internalType":"string"},{"name":"avatar","type":"string","internalType":"string"},{"name":"twitter","type":"string","internalType":"string"},{"name":"github","type":"string","internalType":"string"},{"name":"dweb","type":"string","internalType":"string"},{"name":"snapshot","type":"string","internalType":"string"},{"name":"url","type":"string","internalType":"string"},{"name":"decimals","type":"string","internalType":"string"},{"name":"tokenSupply","type":"string","internalType":"string"},{"name":"nonce","type":"uint256","internalType":"uint256"}],"stateMutability":"view"},{"type":"function","name":"transferOwnership","inputs":[{"name":"newOwner","type":"address","internalType":"address"}],"outputs":[],"stateMutability":"nonpayable"},{"type":"function","name":"updateNonce","inputs":[{"name":"","type":"uint256","internalType":"uint256"}],"outputs":[{"name":"","type":"uint256","internalType":"uint256"}],"stateMutability":"view"},{"type":"event","name":"L2StorageManagerSet","inputs":[{"name":"newManager","type":"address","indexed":true,"internalType":"address"}],"anonymous":false},{"type":"event","name":"OwnershipTransferred","inputs":[{"name":"previousOwner","type":"address","indexed":true,"internalType":"address"},{"name":"newOwner","type":"address","indexed":true,"internalType":"address"}],"anonymous":false},{"type":"event","name":"TokenDataChanged","inputs":[{"name":"tokenID","type":"uint256","indexed":true,"internalType":"uint256"},{"name":"key","type":"string","indexed":false,"internalType":"string"},{"name":"value","type":"string","indexed":false,"internalType":"string"},{"name":"nonce","type":"uint256","indexed":false,"internalType":"uint256"}],"anonymous":false},{"type":"event","name":"UpdateApproved","inputs":[{"name":"tokenID","type":"uint256","indexed":true,"internalType":"uint256"},{"name":"updateId","type":"uint256","indexed":true,"internalType":"uint256"}],"anonymous":false},{"type":"event","name":"UpdateProposed","inputs":[{"name":"tokenID","type":"uint256","indexed":true,"internalType":"uint256"},{"name":"updateId","type":"uint256","indexed":true,"internalType":"uint256"},{"name":"key","type":"string","indexed":false,"internalType":"string"},{"name":"value","type":"string","indexed":false,"internalType":"string"},{"name":"index","type":"uint256","indexed":false,"internalType":"uint256"}],"anonymous":false},{"type":"error","name":"OwnableInvalidOwner","inputs":[{"name":"owner","type":"address","internalType":"address"}]},{"type":"error","name":"OwnableUnauthorizedAccount","inputs":[{"name":"account","type":"address","internalType":"address"}]}],"bytecode":{"object":"0x60806040526103e860075560016008553480156200001c57600080fd5b50604051620027b2380380620027b28339810160408190526200003f916200011a565b8082806001600160a01b0381166200007157604051631e4fbdf760e01b81526000600482015260240160405180910390fd5b6200007c81620000ad565b50600180546001600160a01b0319166001600160a01b038416179055620000a381620000ad565b5050505062000152565b600080546001600160a01b038381166001600160a01b0319831681178455604051919092169283917f8be0079c531659141344cd1fd0a4f28419497f9722a3daafe3b4186f6b6457e09190a35050565b80516001600160a01b03811681146200011557600080fd5b919050565b600080604083850312156200012e57600080fd5b6200013983620000fd565b91506200014960208401620000fd565b90509250929050565b61265080620001626000396000f3fe608060405234801561001057600080fd5b506004361061014d5760003560e01c80637e7f7bc1116100c3578063e370434c1161007c578063e370434c14610347578063e9625d7b1461035a578063f007c6a41461036d578063f164a22014610380578063f2fde38b14610393578063f3ae2415146103a657600080fd5b80637e7f7bc1146102735780638da5cb5b146102a15780639266eac4146102b2578063b7d6ef69146102d2578063ba468068146102e5578063e193bdab146102ed57600080fd5b80636d767708116101155780636d767708146101ed5780636d7a3ac814610218578063715018a6146102465780637222a1a61461024e57806375794a3c146102615780637d0eef611461026a57600080fd5b806324d7806c146101525780634f64b2be1461017a578063570d9324146101a5578063627e8289146101ba57806364639dfb146101da575b600080fd5b610165610160366004611f11565b6103b9565b60405190151581526020015b60405180910390f35b61018d610188366004611f2c565b61042f565b6040516101719c9b9a99989796959493929190611f95565b6101b86101b3366004611f11565b610a5f565b005b6101cd6101c8366004612145565b610ab1565b604051610171919061218c565b6101b86101e836600461223e565b610ba3565b600154610200906001600160a01b031681565b6040516001600160a01b039091168152602001610171565b610238610226366004611f2c565b60046020526000908152604090205481565b604051908152602001610171565b6101b8610d53565b6101b861025c36600461223e565b610d67565b61023860085481565b61023860075481565b6102386102813660046122ab565b600091825260036020908152604080842092845291905290206001015490565b6000546001600160a01b0316610200565b6102386102c0366004611f11565b60066020526000908152604090205481565b6101b86102e03660046122cd565b610f0e565b61023861107c565b61032c6102fb3660046122ab565b6003602081815260009384526040808520909152918352912060018101549181015460049091015460ff9091169083565b60408051938452911515602084015290820152606001610171565b610165610355366004611f11565b6110ef565b6101b8610368366004612302565b611196565b6101cd61037b366004612365565b61124f565b61023861038e366004611f11565b61131b565b6101b86103a1366004611f11565b61138a565b6101656103b4366004611f11565b6113c8565b600154604051630935e01b60e21b81526001600160a01b03838116600483015260009216906324d7806c906024015b602060405180830381865afa158015610405573d6000803e3d6000fd5b505050506040513d601f19601f8201168201806040525081019061042991906123ab565b92915050565b60026020526000908152604090208054819061044a906123cd565b80601f0160208091040260200160405190810160405280929190818152602001828054610476906123cd565b80156104c35780601f10610498576101008083540402835291602001916104c3565b820191906000526020600020905b8154815290600101906020018083116104a657829003601f168201915b5050505050908060010180546104d8906123cd565b80601f0160208091040260200160405190810160405280929190818152602001828054610504906123cd565b80156105515780601f1061052657610100808354040283529160200191610551565b820191906000526020600020905b81548152906001019060200180831161053457829003601f168201915b505050505090806002018054610566906123cd565b80601f0160208091040260200160405190810160405280929190818152602001828054610592906123cd565b80156105df5780601f106105b4576101008083540402835291602001916105df565b820191906000526020600020905b8154815290600101906020018083116105c257829003601f168201915b5050505050908060030180546105f4906123cd565b80601f0160208091040260200160405190810160405280929190818152602001828054610620906123cd565b801561066d5780601f106106425761010080835404028352916020019161066d565b820191906000526020600020905b81548152906001019060200180831161065057829003601f168201915b505050505090806004018054610682906123cd565b80601f01602080910402602001604051908101604052809291908181526020018280546106ae906123cd565b80156106fb5780601f106106d0576101008083540402835291602001916106fb565b820191906000526020600020905b8154815290600101906020018083116106de57829003601f168201915b505050505090806005018054610710906123cd565b80601f016020809104026020016040519081016040528092919081815260200182805461073c906123cd565b80156107895780601f1061075e57610100808354040283529160200191610789565b820191906000526020600020905b81548152906001019060200180831161076c57829003601f168201915b50505050509080600601805461079e906123cd565b80601f01602080910402602001604051908101604052809291908181526020018280546107ca906123cd565b80156108175780601f106107ec57610100808354040283529160200191610817565b820191906000526020600020905b8154815290600101906020018083116107fa57829003601f168201915b50505050509080600701805461082c906123cd565b80601f0160208091040260200160405190810160405280929190818152602001828054610858906123cd565b80156108a55780601f1061087a576101008083540402835291602001916108a5565b820191906000526020600020905b81548152906001019060200180831161088857829003601f168201915b5050505050908060080180546108ba906123cd565b80601f01602080910402602001604051908101604052809291908181526020018280546108e6906123cd565b80156109335780601f1061090857610100808354040283529160200191610933565b820191906000526020600020905b81548152906001019060200180831161091657829003601f168201915b505050505090806009018054610948906123cd565b80601f0160208091040260200160405190810160405280929190818152602001828054610974906123cd565b80156109c15780601f10610996576101008083540402835291602001916109c1565b820191906000526020600020905b8154815290600101906020018083116109a457829003601f168201915b50505050509080600a0180546109d6906123cd565b80601f0160208091040260200160405190810160405280929190818152602001828054610a02906123cd565b8015610a4f5780601f10610a2457610100808354040283529160200191610a4f565b820191906000526020600020905b815481529060010190602001808311610a3257829003601f168201915b50505050509080600b015490508c565b610a676113fb565b600180546001600160a01b0319166001600160a01b0383169081179091556040517fa3567760380494e9d4b62e18aa13c525c9460c4688cb0233faa27971c488d02f90600090a250565b6060610abc82611428565b15610ae0576000838152600260205260409020610ad9908361152e565b9050610429565b60026000848152602001908152602001600020600c0182604051610b049190612407565b90815260200160405180910390208054610b1d906123cd565b80601f0160208091040260200160405190810160405280929190818152602001828054610b49906123cd565b8015610b965780601f10610b6b57610100808354040283529160200191610b96565b820191906000526020600020905b815481529060010190602001808311610b7957829003601f168201915b5050505050905092915050565b8051825114610bcd5760405162461bcd60e51b8152600401610bc490612423565b60405180910390fd5b6000838152600260205260408120905b8351811015610d4c57610c08848281518110610bfb57610bfb612464565b6020026020010151611428565b15610c4f57610c4a82858381518110610c2357610c23612464565b6020026020010151858481518110610c3d57610c3d612464565b6020026020010151611856565b610cb0565b828181518110610c6157610c61612464565b602002602001015182600c01858381518110610c7f57610c7f612464565b6020026020010151604051610c949190612407565b90815260200160405180910390209081610cae91906124c9565b505b600082600b0160008154610cc39061259f565b9190508190559050857f4e6578b942062be395a40635d96714b20bc8edaabef74f7ea5ab93aa5377e8fa868481518110610cff57610cff612464565b6020026020010151868581518110610d1957610d19612464565b602002602001015184604051610d31939291906125b8565b60405180910390a25080610d448161259f565b915050610bdd565b5050505050565b610d5b6113fb565b610d656000611aad565b565b8051825114610d885760405162461bcd60e51b8152600401610bc490612423565b600083815260046020526040812080549082610da38361259f565b90915550600085815260036020908152604080832084845290915281209192505b8451811015610efd57848181518110610ddf57610ddf612464565b602002602001015182600001610df483611afd565b604051610e019190612407565b90815260200160405180910390209081610e1b91906124c9565b50838181518110610e2e57610e2e612464565b602002602001015182600001868381518110610e4c57610e4c612464565b6020026020010151604051610e619190612407565b90815260200160405180910390209081610e7b91906124c9565b5082867fedb1ad9f5527cd057f9d1275465be714d9417845d54b046ce75bf65b2db6ee54878481518110610eb157610eb1612464565b6020026020010151878581518110610ecb57610ecb612464565b602002602001015185604051610ee3939291906125b8565b60405180910390a380610ef58161259f565b915050610dc4565b509251600490930192909255505050565b6000610f198261131b565b905060008111610f5f5760405162461bcd60e51b815260206004820152601160248201527027379030b8383937bb30b6103837bbb2b960791b6044820152606401610bc4565b600084815260036020908152604080832086845282528083206001600160a01b0386168452600281019092529091205460ff1615610fd25760405162461bcd60e51b815260206004820152601060248201526f105b1c9958591e48185c1c1c9bdd995960821b6044820152606401610bc4565b600381015460ff16156110205760405162461bcd60e51b8152602060048201526016602482015275155c19185d1948185b1c9958591e48185c1c1b1a595960521b6044820152606401610bc4565b6001600160a01b03831660009081526002820160205260408120805460ff191660019081179091558201805484929061105a9084906125ee565b90915550611068905061107c565b816001015410610d4c57610d4c8585611b90565b60015460408051631748d00d60e31b815290516000926001600160a01b03169163ba4680689160048083019260209291908290030181865afa1580156110c6573d6000803e3d6000fd5b505050506040513d601f19601f820116820180604052508101906110ea9190612601565b905090565b600154604051630935e01b60e21b81526001600160a01b03838116600483015260009216906324d7806c90602401602060405180830381865afa15801561113a573d6000803e3d6000fd5b505050506040513d601f19601f8201168201806040525081019061115e91906123ab565b80610429575060015460405163f3ae241560e01b81526001600160a01b0384811660048301529091169063f3ae2415906024016103e8565b60008381526002602052604090206111ad83611428565b156111c2576111bd818484611856565b6111f1565b8181600c01846040516111d59190612407565b908152602001604051809103902090816111ef91906124c9565b505b600081600b01600081546112049061259f565b9190508190559050847f4e6578b942062be395a40635d96714b20bc8edaabef74f7ea5ab93aa5377e8fa858584604051611240939291906125b8565b60405180910390a25050505050565b60008381526003602090815260408083208584529091529081902090516060919061127b908490612407565b90815260200160405180910390208054611294906123cd565b80601f01602080910402602001604051908101604052809291908181526020018280546112c0906123cd565b801561130d5780601f106112e25761010080835404028352916020019161130d565b820191906000526020600020905b8154815290600101906020018083116112f057829003601f168201915b505050505090509392505050565b60015460405163078b251160e51b81526001600160a01b038381166004830152600092169063f164a22090602401602060405180830381865afa158015611366573d6000803e3d6000fd5b505050506040513d601f19601f820116820180604052508101906104299190612601565b6113926113fb565b6001600160a01b0381166113bc57604051631e4fbdf760e01b815260006004820152602401610bc4565b6113c581611aad565b50565b60015460405163f3ae241560e01b81526001600160a01b038381166004830152600092169063f3ae2415906024016103e8565b6000546001600160a01b03163314610d655760405163118cdaa760e01b8152336004820152602401610bc4565b805160208201206000907f2361458367e696363fbcc70777d07ebbd2394e89fd0adcaf147faccd1d294d6081148061147f57507fbe16b05c387bab9ac31918a3e61672f4618601f3c598a2f3f2710f37053e1ea481145b806114a957507f1596dc38e2ac5a6ddc5e019af4adcc1e017a04f510d57e69d6879d5d2996bb8e81145b806114d357507fb68b5f5089998f2978a1dcc681e8ef27962b90d5c26c4c0b9c1945814ffa5ef081145b806114fd57507f784c4fb1ab068f6039d5780c68dd0fa2f8742cceb3426d19667778ca7f3518a981145b8061152757507f5ccb1910f2f477c48735252ee982f97f145a268fe0c0011f2a29f951f724f96081145b9392505050565b805160208201206060907fdc9eba7c981969c9c04338f8882f81442dc6b17602f52350eb805332e2d6b2a081016115f2578354849061156c906123cd565b80601f0160208091040260200160405190810160405280929190818152602001828054611598906123cd565b80156115e55780601f106115ba576101008083540402835291602001916115e5565b820191906000526020600020905b8154815290600101906020018083116115c857829003601f168201915b5050505050915050610429565b7fbe16b05c387bab9ac31918a3e61672f4618601f3c598a2f3f2710f37053e1ea481036116285783600101805461156c906123cd565b7f1596dc38e2ac5a6ddc5e019af4adcc1e017a04f510d57e69d6879d5d2996bb8e810361165e5783600201805461156c906123cd565b7fb68b5f5089998f2978a1dcc681e8ef27962b90d5c26c4c0b9c1945814ffa5ef081036116945783600801805461156c906123cd565b7fd1f86c93d831119ad98fe983e643a7431e4ac992e3ead6e3007f4dd1adf6634381036116ca5783600301805461156c906123cd565b7f2c9274140d86809a639e9224c5b782cb4bc94363207366b89a7d0b26a69843d281036117005783600601805461156c906123cd565b7fde77e793564bc5ba0713b610c743ab0d819d9580fcae7c67b4c6f835fb9ee50081036117365783600701805461156c906123cd565b7fe0c21cec0df89042d0481b515470acf4b93b792ca3f63efbc999f5bb9716a8f4810361176c5783600401805461156c906123cd565b7f07a17bd3c7c8d7b88e93a4d9007e3bc230b0a586a434de0bed6500e9f343deb781036117a25783600501805461156c906123cd565b7f784c4fb1ab068f6039d5780c68dd0fa2f8742cceb3426d19667778ca7f3518a981036117d85783600901805461156c906123cd565b7f5ccb1910f2f477c48735252ee982f97f145a268fe0c0011f2a29f951f724f960810361180e5783600a01805461156c906123cd565b60405162461bcd60e51b815260206004820152601760248201527f496e76616c6964207374727563742070726f70657274790000000000000000006044820152606401610bc4565b815160208301207fdc9eba7c981969c9c04338f8882f81442dc6b17602f52350eb805332e2d6b2a08101611895578361188f83826124c9565b50611aa7565b7fbe16b05c387bab9ac31918a3e61672f4618601f3c598a2f3f2710f37053e1ea481036118ca576001840161188f83826124c9565b7f1596dc38e2ac5a6ddc5e019af4adcc1e017a04f510d57e69d6879d5d2996bb8e81036118ff576002840161188f83826124c9565b7fb68b5f5089998f2978a1dcc681e8ef27962b90d5c26c4c0b9c1945814ffa5ef08103611934576008840161188f83826124c9565b7f784c4fb1ab068f6039d5780c68dd0fa2f8742cceb3426d19667778ca7f3518a98103611969576009840161188f83826124c9565b7f5ccb1910f2f477c48735252ee982f97f145a268fe0c0011f2a29f951f724f960810361199e57600a840161188f83826124c9565b7fd1f86c93d831119ad98fe983e643a7431e4ac992e3ead6e3007f4dd1adf6634381036119d3576003840161188f83826124c9565b7fe0c21cec0df89042d0481b515470acf4b93b792ca3f63efbc999f5bb9716a8f48103611a08576004840161188f83826124c9565b7f07a17bd3c7c8d7b88e93a4d9007e3bc230b0a586a434de0bed6500e9f343deb78103611a3d576005840161188f83826124c9565b7f2c9274140d86809a639e9224c5b782cb4bc94363207366b89a7d0b26a69843d28103611a72576006840161188f83826124c9565b7fde77e793564bc5ba0713b610c743ab0d819d9580fcae7c67b4c6f835fb9ee5008103611aa75760078401610d4c83826124c9565b50505050565b600080546001600160a01b038381166001600160a01b0319831681178455604051919092169283917f8be0079c531659141344cd1fd0a4f28419497f9722a3daafe3b4186f6b6457e09190a35050565b60606000611b0a83611e1d565b600101905060008167ffffffffffffffff811115611b2a57611b2a61208e565b6040519080825280601f01601f191660200182016040528015611b54576020820181803683370190505b5090508181016020015b600019016f181899199a1a9b1b9c1cb0b131b232b360811b600a86061a8153600a8504945084611b5e57509392505050565b600082815260036020908152604080832084845282528083208584526002909252822090915b8260040154811015611dda57600083611bce83611afd565b604051611bdb9190612407565b90815260200160405180910390208054611bf4906123cd565b80601f0160208091040260200160405190810160405280929190818152602001828054611c20906123cd565b8015611c6d5780601f10611c4257610100808354040283529160200191611c6d565b820191906000526020600020905b815481529060010190602001808311611c5057829003601f168201915b5050505050905060008460000182604051611c889190612407565b90815260200160405180910390208054611ca1906123cd565b80601f0160208091040260200160405190810160405280929190818152602001828054611ccd906123cd565b8015611d1a5780601f10611cef57610100808354040283529160200191611d1a565b820191906000526020600020905b815481529060010190602001808311611cfd57829003601f168201915b50505050509050611d2a82611428565b15611d3f57611d3a848383611856565b611d6e565b8084600c0183604051611d529190612407565b90815260200160405180910390209081611d6c91906124c9565b505b600b84018054906000611d808361259f565b9190505550867f4e6578b942062be395a40635d96714b20bc8edaabef74f7ea5ab93aa5377e8fa838387600b0154604051611dbd939291906125b8565b60405180910390a250508080611dd29061259f565b915050611bb6565b5060038201805460ff19166001179055604051839085907f762ebf79fbb126c9d356fb29452a1d7e11f13a32a3be9d6592fb8cddb6e095f090600090a350505050565b60008072184f03e93ff9f4daa797ed6e38ed64bf6a1f0160401b8310611e5c5772184f03e93ff9f4daa797ed6e38ed64bf6a1f0160401b830492506040015b6d04ee2d6d415b85acef81000000008310611e88576d04ee2d6d415b85acef8100000000830492506020015b662386f26fc100008310611ea657662386f26fc10000830492506010015b6305f5e1008310611ebe576305f5e100830492506008015b6127108310611ed257612710830492506004015b60648310611ee4576064830492506002015b600a83106104295760010192915050565b80356001600160a01b0381168114611f0c57600080fd5b919050565b600060208284031215611f2357600080fd5b61152782611ef5565b600060208284031215611f3e57600080fd5b5035919050565b60005b83811015611f60578181015183820152602001611f48565b50506000910152565b60008151808452611f81816020860160208601611f45565b601f01601f19169290920160200192915050565b61018081526000611faa61018083018f611f69565b8281036020840152611fbc818f611f69565b90508281036040840152611fd0818e611f69565b90508281036060840152611fe4818d611f69565b90508281036080840152611ff8818c611f69565b905082810360a084015261200c818b611f69565b905082810360c0840152612020818a611f69565b905082810360e08401526120348189611f69565b90508281036101008401526120498188611f69565b905082810361012084015261205e8187611f69565b90508281036101408401526120738186611f69565b915050826101608301529d9c50505050505050505050505050565b634e487b7160e01b600052604160045260246000fd5b604051601f8201601f1916810167ffffffffffffffff811182821017156120cd576120cd61208e565b604052919050565b600082601f8301126120e657600080fd5b813567ffffffffffffffff8111156121005761210061208e565b612113601f8201601f19166020016120a4565b81815284602083860101111561212857600080fd5b816020850160208301376000918101602001919091529392505050565b6000806040838503121561215857600080fd5b82359150602083013567ffffffffffffffff81111561217657600080fd5b612182858286016120d5565b9150509250929050565b6020815260006115276020830184611f69565b600082601f8301126121b057600080fd5b8135602067ffffffffffffffff808311156121cd576121cd61208e565b8260051b6121dc8382016120a4565b93845285810183019383810190888611156121f657600080fd5b84880192505b85831015612232578235848111156122145760008081fd5b6122228a87838c01016120d5565b83525091840191908401906121fc565b98975050505050505050565b60008060006060848603121561225357600080fd5b83359250602084013567ffffffffffffffff8082111561227257600080fd5b61227e8783880161219f565b9350604086013591508082111561229457600080fd5b506122a18682870161219f565b9150509250925092565b600080604083850312156122be57600080fd5b50508035926020909101359150565b6000806000606084860312156122e257600080fd5b83359250602084013591506122f960408501611ef5565b90509250925092565b60008060006060848603121561231757600080fd5b83359250602084013567ffffffffffffffff8082111561233657600080fd5b612342878388016120d5565b9350604086013591508082111561235857600080fd5b506122a1868287016120d5565b60008060006060848603121561237a57600080fd5b8335925060208401359150604084013567ffffffffffffffff81111561239f57600080fd5b6122a1868287016120d5565b6000602082840312156123bd57600080fd5b8151801515811461152757600080fd5b600181811c908216806123e157607f821691505b60208210810361240157634e487b7160e01b600052602260045260246000fd5b50919050565b60008251612419818460208701611f45565b9190910192915050565b60208082526021908201527f4d69736d617463686564206b65797320616e642076616c7565732061727261796040820152607360f81b606082015260800190565b634e487b7160e01b600052603260045260246000fd5b601f8211156124c457600081815260208120601f850160051c810160208610156124a15750805b601f850160051c820191505b818110156124c0578281556001016124ad565b5050505b505050565b815167ffffffffffffffff8111156124e3576124e361208e565b6124f7816124f184546123cd565b8461247a565b602080601f83116001811461252c57600084156125145750858301515b600019600386901b1c1916600185901b1785556124c0565b600085815260208120601f198616915b8281101561255b5788860151825594840194600190910190840161253c565b50858210156125795787850151600019600388901b60f8161c191681555b5050505050600190811b01905550565b634e487b7160e01b600052601160045260246000fd5b6000600182016125b1576125b1612589565b5060010190565b6060815260006125cb6060830186611f69565b82810360208401526125dd8186611f69565b915050826040830152949350505050565b8082018082111561042957610429612589565b60006020828403121561261357600080fd5b505191905056fea2646970667358221220f2829f2f298103d0f5e614f8849472554cea346d8e460d546c2e478a92a4f40664736f6c63430008140033","linkReferences":{}},"methodIdentifiers":{"approvalPower(address)":"9266eac4","approvalThreshold()":"7d0eef61","approveUpdate(uint256,uint256,address)":"b7d6ef69","getApprovalPower(address)":"f164a220","getApprovalThreshold()":"ba468068","getCurrentApprovalScore(uint256,uint256)":"7e7f7bc1","getTokenData(uint256,string)":"627e8289","getUpdateData(uint256,uint256,string)":"f007c6a4","isAdmin(address)":"24d7806c","isAdminOrManager(address)":"e370434c","isManager(address)":"f3ae2415","l2StorageManager()":"6d767708","nextTokenId()":"75794a3c","owner()":"8da5cb5b","proposeUpdate(uint256,string[],string[])":"7222a1a6","proposedUpdates(uint256,uint256)":"e193bdab","renounceOwnership()":"715018a6","setL2StorageManager(address)":"570d9324","setTokenData(uint256,string,string)":"e9625d7b","setTokenDataBatch(uint256,string[],string[])":"64639dfb","tokens(uint256)":"4f64b2be","transferOwnership(address)":"f2fde38b","updateNonce(uint256)":"6d7a3ac8"},"id":5}