{"abi":[{"type":"constructor","inputs":[{"name":"initialOwner","type":"address","internalType":"address"},{"name":"managerContract","type":"address","internalType":"address"}],"stateMutability":"nonpayable"},{"type":"function","name":"getApprovalPower","inputs":[{"name":"account","type":"address","internalType":"address"}],"outputs":[{"name":"","type":"uint256","internalType":"uint256"}],"stateMutability":"view"},{"type":"function","name":"getApprovalThreshold","inputs":[],"outputs":[{"name":"","type":"uint256","internalType":"uint256"}],"stateMutability":"view"},{"type":"function","name":"getUserBatchData","inputs":[{"name":"userId","type":"uint256","internalType":"uint256"},{"name":"keys","type":"string[]","internalType":"string[]"}],"outputs":[{"name":"nonce","type":"uint256","internalType":"uint256"},{"name":"values","type":"string[]","internalType":"string[]"}],"stateMutability":"view"},{"type":"function","name":"getUserData","inputs":[{"name":"userId","type":"uint256","internalType":"uint256"},{"name":"key","type":"string","internalType":"string"}],"outputs":[{"name":"","type":"string","internalType":"string"}],"stateMutability":"view"},{"type":"function","name":"getUserNonce","inputs":[{"name":"userId","type":"uint256","internalType":"uint256"}],"outputs":[{"name":"","type":"uint256","internalType":"uint256"}],"stateMutability":"view"},{"type":"function","name":"isAdmin","inputs":[{"name":"account","type":"address","internalType":"address"}],"outputs":[{"name":"","type":"bool","internalType":"bool"}],"stateMutability":"view"},{"type":"function","name":"isAdminOrManager","inputs":[{"name":"account","type":"address","internalType":"address"}],"outputs":[{"name":"","type":"bool","internalType":"bool"}],"stateMutability":"view"},{"type":"function","name":"isManager","inputs":[{"name":"account","type":"address","internalType":"address"}],"outputs":[{"name":"","type":"bool","internalType":"bool"}],"stateMutability":"view"},{"type":"function","name":"l2StorageManager","inputs":[],"outputs":[{"name":"","type":"address","internalType":"contract IL2StorageManager"}],"stateMutability":"view"},{"type":"function","name":"nextUserId","inputs":[],"outputs":[{"name":"","type":"uint256","internalType":"uint256"}],"stateMutability":"view"},{"type":"function","name":"owner","inputs":[],"outputs":[{"name":"","type":"address","internalType":"address"}],"stateMutability":"view"},{"type":"function","name":"renounceOwnership","inputs":[],"outputs":[],"stateMutability":"nonpayable"},{"type":"function","name":"setL2StorageManager","inputs":[{"name":"manager","type":"address","internalType":"address"}],"outputs":[],"stateMutability":"nonpayable"},{"type":"function","name":"setUserData","inputs":[{"name":"userId","type":"uint256","internalType":"uint256"},{"name":"key","type":"string","internalType":"string"},{"name":"value","type":"string","internalType":"string"}],"outputs":[],"stateMutability":"nonpayable"},{"type":"function","name":"setUserDataBatch","inputs":[{"name":"userId","type":"uint256","internalType":"uint256"},{"name":"keys","type":"string[]","internalType":"string[]"},{"name":"values","type":"string[]","internalType":"string[]"}],"outputs":[],"stateMutability":"nonpayable"},{"type":"function","name":"transferOwnership","inputs":[{"name":"newOwner","type":"address","internalType":"address"}],"outputs":[],"stateMutability":"nonpayable"},{"type":"function","name":"users","inputs":[{"name":"","type":"uint256","internalType":"uint256"}],"outputs":[{"name":"nonce","type":"uint256","internalType":"uint256"}],"stateMutability":"view"},{"type":"event","name":"L2StorageManagerSet","inputs":[{"name":"newManager","type":"address","indexed":true,"internalType":"address"}],"anonymous":false},{"type":"event","name":"OwnershipTransferred","inputs":[{"name":"previousOwner","type":"address","indexed":true,"internalType":"address"},{"name":"newOwner","type":"address","indexed":true,"internalType":"address"}],"anonymous":false},{"type":"event","name":"UserDataChanged","inputs":[{"name":"userId","type":"uint256","indexed":false,"internalType":"uint256"},{"name":"key","type":"string","indexed":false,"internalType":"string"},{"name":"value","type":"string","indexed":false,"internalType":"string"},{"name":"nonce","type":"uint256","indexed":false,"internalType":"uint256"}],"anonymous":false},{"type":"error","name":"OwnableInvalidOwner","inputs":[{"name":"owner","type":"address","internalType":"address"}]},{"type":"error","name":"OwnableUnauthorizedAccount","inputs":[{"name":"account","type":"address","internalType":"address"}]}],"bytecode":{"object":"0x608060405260016003553480156200001657600080fd5b506040516200129b3803806200129b833981016040819052620000399162000114565b8082806001600160a01b0381166200006b57604051631e4fbdf760e01b81526000600482015260240160405180910390fd5b6200007681620000a7565b50600180546001600160a01b0319166001600160a01b0384161790556200009d81620000a7565b505050506200014c565b600080546001600160a01b038381166001600160a01b0319831681178455604051919092169283917f8be0079c531659141344cd1fd0a4f28419497f9722a3daafe3b4186f6b6457e09190a35050565b80516001600160a01b03811681146200010f57600080fd5b919050565b600080604083850312156200012857600080fd5b6200013383620000f7565b91506200014360208401620000f7565b90509250929050565b61113f806200015c6000396000f3fe608060405234801561001057600080fd5b506004361061010b5760003560e01c8063a1e6a255116100a2578063f164a22011610071578063f164a22014610229578063f2fde38b1461023c578063f3ae24151461024f578063f979690c14610262578063ff1469701461028257600080fd5b8063a1e6a255146101f2578063ba468068146101fb578063ca1d382c14610203578063e370434c1461021657600080fd5b80636d767708116100de5780636d7677081461018e578063715018a6146101b95780637b9202a8146101c15780638da5cb5b146101e157600080fd5b806324d7806c14610110578063365b98b214610138578063570d9324146101665780635b8796cd1461017b575b600080fd5b61012361011e366004610a6d565b6102a3565b60405190151581526020015b60405180910390f35b610158610146366004610a9d565b60026020526000908152604090205481565b60405190815260200161012f565b610179610174366004610a6d565b610319565b005b610179610189366004610b6d565b61036b565b6001546101a1906001600160a01b031681565b6040516001600160a01b03909116815260200161012f565b610179610411565b6101d46101cf366004610bda565b610425565b60405161012f9190610ca6565b6000546001600160a01b03166101a1565b61015860035481565b6101586104ed565b610179610211366004610d58565b610560565b610123610224366004610a6d565b6106e9565b610158610237366004610a6d565b610790565b61017961024a366004610a6d565b6107ff565b61012361025d366004610a6d565b61083d565b610158610270366004610a9d565b60009081526002602052604090205490565b610295610290366004610dbb565b610870565b60405161012f929190610e27565b600154604051630935e01b60e21b81526001600160a01b03838116600483015260009216906324d7806c906024015b602060405180830381865afa1580156102ef573d6000803e3d6000fd5b505050506040513d601f19601f820116820180604052508101906103139190610e91565b92915050565b6103216109f0565b600180546001600160a01b0319166001600160a01b0383169081179091556040517fa3567760380494e9d4b62e18aa13c525c9460c4688cb0233faa27971c488d02f90600090a250565b8060026000858152602001908152602001600020600101836040516103909190610eb3565b908152602001604051809103902090816103aa9190610f58565b506000838152600260205260408120805482906103c690611018565b91905081905590507fb05dd7c889b613adbf3a2c9a6febb2783a7fd78defe56b9493fe2e35ab23b7ba84848484604051610403949392919061103f565b60405180910390a150505050565b6104196109f0565b6104236000610a1d565b565b606060026000858152602001908152602001600020600101838360405161044d92919061107c565b9081526020016040518091039020805461046690610ecf565b80601f016020809104026020016040519081016040528092919081815260200182805461049290610ecf565b80156104df5780601f106104b4576101008083540402835291602001916104df565b820191906000526020600020905b8154815290600101906020018083116104c257829003601f168201915b505050505090509392505050565b60015460408051631748d00d60e31b815290516000926001600160a01b03169163ba4680689160048083019260209291908290030181865afa158015610537573d6000803e3d6000fd5b505050506040513d601f19601f8201168201806040525081019061055b919061108c565b905090565b80518251146105c05760405162461bcd60e51b815260206004820152602160248201527f4d69736d617463686564206b65797320616e642076616c7565732061727261796044820152607360f81b60648201526084015b60405180910390fd5b60005b82518110156106e3578181815181106105de576105de6110a5565b60200260200101516002600086815260200190815260200160002060010184838151811061060e5761060e6110a5565b60200260200101516040516106239190610eb3565b9081526020016040518091039020908161063d9190610f58565b5060008481526002602052604081208054829061065990611018565b91905081905590507fb05dd7c889b613adbf3a2c9a6febb2783a7fd78defe56b9493fe2e35ab23b7ba85858481518110610695576106956110a5565b60200260200101518585815181106106af576106af6110a5565b6020026020010151846040516106c8949392919061103f565b60405180910390a150806106db81611018565b9150506105c3565b50505050565b600154604051630935e01b60e21b81526001600160a01b03838116600483015260009216906324d7806c90602401602060405180830381865afa158015610734573d6000803e3d6000fd5b505050506040513d601f19601f820116820180604052508101906107589190610e91565b80610313575060015460405163f3ae241560e01b81526001600160a01b0384811660048301529091169063f3ae2415906024016102d2565b60015460405163078b251160e51b81526001600160a01b038381166004830152600092169063f164a22090602401602060405180830381865afa1580156107db573d6000803e3d6000fd5b505050506040513d601f19601f82011682018060405250810190610313919061108c565b6108076109f0565b6001600160a01b03811661083157604051631e4fbdf760e01b8152600060048201526024016105b7565b61083a81610a1d565b50565b60015460405163f3ae241560e01b81526001600160a01b038381166004830152600092169063f3ae2415906024016102d2565b600060608267ffffffffffffffff81111561088d5761088d610ab6565b6040519080825280602002602001820160405280156108c057816020015b60608152602001906001900390816108ab5790505b50905060005b838110156109d85760008681526002602052604090206001018585838181106108f1576108f16110a5565b905060200281019061090391906110bb565b60405161091192919061107c565b9081526020016040518091039020805461092a90610ecf565b80601f016020809104026020016040519081016040528092919081815260200182805461095690610ecf565b80156109a35780601f10610978576101008083540402835291602001916109a3565b820191906000526020600020905b81548152906001019060200180831161098657829003601f168201915b50505050508282815181106109ba576109ba6110a5565b602002602001018190525080806109d090611018565b9150506108c6565b50600094855260026020526040909420549492505050565b6000546001600160a01b031633146104235760405163118cdaa760e01b81523360048201526024016105b7565b600080546001600160a01b038381166001600160a01b0319831681178455604051919092169283917f8be0079c531659141344cd1fd0a4f28419497f9722a3daafe3b4186f6b6457e09190a35050565b600060208284031215610a7f57600080fd5b81356001600160a01b0381168114610a9657600080fd5b9392505050565b600060208284031215610aaf57600080fd5b5035919050565b634e487b7160e01b600052604160045260246000fd5b604051601f8201601f1916810167ffffffffffffffff81118282101715610af557610af5610ab6565b604052919050565b600082601f830112610b0e57600080fd5b813567ffffffffffffffff811115610b2857610b28610ab6565b610b3b601f8201601f1916602001610acc565b818152846020838601011115610b5057600080fd5b816020850160208301376000918101602001919091529392505050565b600080600060608486031215610b8257600080fd5b83359250602084013567ffffffffffffffff80821115610ba157600080fd5b610bad87838801610afd565b93506040860135915080821115610bc357600080fd5b50610bd086828701610afd565b9150509250925092565b600080600060408486031215610bef57600080fd5b83359250602084013567ffffffffffffffff80821115610c0e57600080fd5b818601915086601f830112610c2257600080fd5b813581811115610c3157600080fd5b876020828501011115610c4357600080fd5b6020830194508093505050509250925092565b60005b83811015610c71578181015183820152602001610c59565b50506000910152565b60008151808452610c92816020860160208601610c56565b601f01601f19169290920160200192915050565b602081526000610a966020830184610c7a565b600082601f830112610cca57600080fd5b8135602067ffffffffffffffff80831115610ce757610ce7610ab6565b8260051b610cf6838201610acc565b9384528581018301938381019088861115610d1057600080fd5b84880192505b85831015610d4c57823584811115610d2e5760008081fd5b610d3c8a87838c0101610afd565b8352509184019190840190610d16565b98975050505050505050565b600080600060608486031215610d6d57600080fd5b83359250602084013567ffffffffffffffff80821115610d8c57600080fd5b610d9887838801610cb9565b93506040860135915080821115610dae57600080fd5b50610bd086828701610cb9565b600080600060408486031215610dd057600080fd5b83359250602084013567ffffffffffffffff80821115610def57600080fd5b818601915086601f830112610e0357600080fd5b813581811115610e1257600080fd5b8760208260051b8501011115610c4357600080fd5b600060408201848352602060408185015281855180845260608601915060608160051b870101935082870160005b82811015610e8357605f19888703018452610e71868351610c7a565b95509284019290840190600101610e55565b509398975050505050505050565b600060208284031215610ea357600080fd5b81518015158114610a9657600080fd5b60008251610ec5818460208701610c56565b9190910192915050565b600181811c90821680610ee357607f821691505b602082108103610f0357634e487b7160e01b600052602260045260246000fd5b50919050565b601f821115610f5357600081815260208120601f850160051c81016020861015610f305750805b601f850160051c820191505b81811015610f4f57828155600101610f3c565b5050505b505050565b815167ffffffffffffffff811115610f7257610f72610ab6565b610f8681610f808454610ecf565b84610f09565b602080601f831160018114610fbb5760008415610fa35750858301515b600019600386901b1c1916600185901b178555610f4f565b600085815260208120601f198616915b82811015610fea57888601518255948401946001909101908401610fcb565b50858210156110085787850151600019600388901b60f8161c191681555b5050505050600190811b01905550565b60006001820161103857634e487b7160e01b600052601160045260246000fd5b5060010190565b8481526080602082015260006110586080830186610c7a565b828103604084015261106a8186610c7a565b91505082606083015295945050505050565b8183823760009101908152919050565b60006020828403121561109e57600080fd5b5051919050565b634e487b7160e01b600052603260045260246000fd5b6000808335601e198436030181126110d257600080fd5b83018035915067ffffffffffffffff8211156110ed57600080fd5b60200191503681900382131561110257600080fd5b925092905056fea2646970667358221220b94675613c9fb212015cdb4dc496480f5a9c6007d0b89ae90df47307877d285b64736f6c63430008140033","linkReferences":{}},"methodIdentifiers":{"getApprovalPower(address)":"f164a220","getApprovalThreshold()":"ba468068","getUserBatchData(uint256,string[])":"ff146970","getUserData(uint256,string)":"7b9202a8","getUserNonce(uint256)":"f979690c","isAdmin(address)":"24d7806c","isAdminOrManager(address)":"e370434c","isManager(address)":"f3ae2415","l2StorageManager()":"6d767708","nextUserId()":"a1e6a255","owner()":"8da5cb5b","renounceOwnership()":"715018a6","setL2StorageManager(address)":"570d9324","setUserData(uint256,string,string)":"5b8796cd","setUserDataBatch(uint256,string[],string[])":"ca1d382c","transferOwnership(address)":"f2fde38b","users(uint256)":"365b98b2"},"id":6}