{"abi":[{"type":"constructor","inputs":[{"name":"initialOwner","type":"address","internalType":"address"},{"name":"managerContract","type":"address","internalType":"address"}],"stateMutability":"nonpayable"},{"type":"function","name":"getApprovalPower","inputs":[{"name":"account","type":"address","internalType":"address"}],"outputs":[{"name":"","type":"uint256","internalType":"uint256"}],"stateMutability":"view"},{"type":"function","name":"getApprovalThreshold","inputs":[],"outputs":[{"name":"","type":"uint256","internalType":"uint256"}],"stateMutability":"view"},{"type":"function","name":"getValidationBatchData","inputs":[{"name":"validationId","type":"uint256","internalType":"uint256"},{"name":"keys","type":"string[]","internalType":"string[]"}],"outputs":[{"name":"nonce","type":"uint256","internalType":"uint256"},{"name":"values","type":"string[]","internalType":"string[]"}],"stateMutability":"view"},{"type":"function","name":"getValidationData","inputs":[{"name":"validationId","type":"uint256","internalType":"uint256"},{"name":"key","type":"string","internalType":"string"}],"outputs":[{"name":"","type":"string","internalType":"string"}],"stateMutability":"view"},{"type":"function","name":"getValidationNonce","inputs":[{"name":"validationId","type":"uint256","internalType":"uint256"}],"outputs":[{"name":"","type":"uint256","internalType":"uint256"}],"stateMutability":"view"},{"type":"function","name":"isAdmin","inputs":[{"name":"account","type":"address","internalType":"address"}],"outputs":[{"name":"","type":"bool","internalType":"bool"}],"stateMutability":"view"},{"type":"function","name":"isAdminOrManager","inputs":[{"name":"account","type":"address","internalType":"address"}],"outputs":[{"name":"","type":"bool","internalType":"bool"}],"stateMutability":"view"},{"type":"function","name":"isManager","inputs":[{"name":"account","type":"address","internalType":"address"}],"outputs":[{"name":"","type":"bool","internalType":"bool"}],"stateMutability":"view"},{"type":"function","name":"l2StorageManager","inputs":[],"outputs":[{"name":"","type":"address","internalType":"contract IL2StorageManager"}],"stateMutability":"view"},{"type":"function","name":"nextValidationId","inputs":[],"outputs":[{"name":"","type":"uint256","internalType":"uint256"}],"stateMutability":"view"},{"type":"function","name":"owner","inputs":[],"outputs":[{"name":"","type":"address","internalType":"address"}],"stateMutability":"view"},{"type":"function","name":"renounceOwnership","inputs":[],"outputs":[],"stateMutability":"nonpayable"},{"type":"function","name":"setL2StorageManager","inputs":[{"name":"manager","type":"address","internalType":"address"}],"outputs":[],"stateMutability":"nonpayable"},{"type":"function","name":"setValidationData","inputs":[{"name":"validationId","type":"uint256","internalType":"uint256"},{"name":"key","type":"string","internalType":"string"},{"name":"value","type":"string","internalType":"string"}],"outputs":[],"stateMutability":"nonpayable"},{"type":"function","name":"setValidationDataBatch","inputs":[{"name":"validationId","type":"uint256","internalType":"uint256"},{"name":"keys","type":"string[]","internalType":"string[]"},{"name":"values","type":"string[]","internalType":"string[]"}],"outputs":[],"stateMutability":"nonpayable"},{"type":"function","name":"transferOwnership","inputs":[{"name":"newOwner","type":"address","internalType":"address"}],"outputs":[],"stateMutability":"nonpayable"},{"type":"function","name":"validations","inputs":[{"name":"","type":"uint256","internalType":"uint256"}],"outputs":[{"name":"nonce","type":"uint256","internalType":"uint256"}],"stateMutability":"view"},{"type":"event","name":"L2StorageManagerSet","inputs":[{"name":"newManager","type":"address","indexed":true,"internalType":"address"}],"anonymous":false},{"type":"event","name":"OwnershipTransferred","inputs":[{"name":"previousOwner","type":"address","indexed":true,"internalType":"address"},{"name":"newOwner","type":"address","indexed":true,"internalType":"address"}],"anonymous":false},{"type":"event","name":"ValidationDataChanged","inputs":[{"name":"validationId","type":"uint256","indexed":false,"internalType":"uint256"},{"name":"key","type":"string","indexed":false,"internalType":"string"},{"name":"value","type":"string","indexed":false,"internalType":"string"},{"name":"nonce","type":"uint256","indexed":false,"internalType":"uint256"}],"anonymous":false},{"type":"error","name":"OwnableInvalidOwner","inputs":[{"name":"owner","type":"address","internalType":"address"}]},{"type":"error","name":"OwnableUnauthorizedAccount","inputs":[{"name":"account","type":"address","internalType":"address"}]}],"bytecode":{"object":"0x608060405260016003553480156200001657600080fd5b506040516200129b3803806200129b833981016040819052620000399162000114565b8082806001600160a01b0381166200006b57604051631e4fbdf760e01b81526000600482015260240160405180910390fd5b6200007681620000a7565b50600180546001600160a01b0319166001600160a01b0384161790556200009d81620000a7565b505050506200014c565b600080546001600160a01b038381166001600160a01b0319831681178455604051919092169283917f8be0079c531659141344cd1fd0a4f28419497f9722a3daafe3b4186f6b6457e09190a35050565b80516001600160a01b03811681146200010f57600080fd5b919050565b600080604083850312156200012857600080fd5b6200013383620000f7565b91506200014360208401620000f7565b90509250929050565b61113f806200015c6000396000f3fe608060405234801561001057600080fd5b506004361061010b5760003560e01c80638da5cb5b116100a2578063e370434c11610071578063e370434c14610244578063f164a22014610257578063f2fde38b1461026a578063f3ae24151461027d578063f8ce2cac1461029057600080fd5b80638da5cb5b146102025780639804c04f14610213578063ba4680681461021c578063d037a7a31461022457600080fd5b80636d767708116100de5780636d7677081461018e578063715018a6146101b957806374dc350f146101c157806377ea8ffb146101e157600080fd5b806324d7806c14610110578063289ec74f14610138578063411d16ba1461014d578063570d93241461017b575b600080fd5b61012361011e366004610a6d565b6102a3565b60405190151581526020015b60405180910390f35b61014b610146366004610bf3565b610319565b005b61016d61015b366004610c60565b60009081526002602052604090205490565b60405190815260200161012f565b61014b610189366004610a6d565b6104a2565b6001546101a1906001600160a01b031681565b6040516001600160a01b03909116815260200161012f565b61014b6104f4565b6101d46101cf366004610c79565b610508565b60405161012f9190610d45565b6101f46101ef366004610d58565b6105d0565b60405161012f929190610dc4565b6000546001600160a01b03166101a1565b61016d60035481565b61016d610750565b61016d610232366004610c60565b60026020526000908152604090205481565b610123610252366004610a6d565b6107c3565b61016d610265366004610a6d565b61086a565b61014b610278366004610a6d565b6108d9565b61012361028b366004610a6d565b610917565b61014b61029e366004610e2e565b61094a565b600154604051630935e01b60e21b81526001600160a01b03838116600483015260009216906324d7806c906024015b602060405180830381865afa1580156102ef573d6000803e3d6000fd5b505050506040513d601f19601f820116820180604052508101906103139190610e91565b92915050565b80518251146103795760405162461bcd60e51b815260206004820152602160248201527f4d69736d617463686564206b65797320616e642076616c7565732061727261796044820152607360f81b60648201526084015b60405180910390fd5b60005b825181101561049c5781818151811061039757610397610eb3565b6020026020010151600260008681526020019081526020016000206001018483815181106103c7576103c7610eb3565b60200260200101516040516103dc9190610ec9565b908152602001604051809103902090816103f69190610f6e565b506000848152600260205260408120805482906104129061102e565b91905081905590507fa1ad81b52de1149f86a90ead963c38e0d3c44f262863d7b793b12113398b88bf8585848151811061044e5761044e610eb3565b602002602001015185858151811061046857610468610eb3565b6020026020010151846040516104819493929190611055565b60405180910390a150806104948161102e565b91505061037c565b50505050565b6104aa6109f0565b600180546001600160a01b0319166001600160a01b0383169081179091556040517fa3567760380494e9d4b62e18aa13c525c9460c4688cb0233faa27971c488d02f90600090a250565b6104fc6109f0565b6105066000610a1d565b565b6060600260008581526020019081526020016000206001018383604051610530929190611092565b9081526020016040518091039020805461054990610ee5565b80601f016020809104026020016040519081016040528092919081815260200182805461057590610ee5565b80156105c25780601f10610597576101008083540402835291602001916105c2565b820191906000526020600020905b8154815290600101906020018083116105a557829003601f168201915b505050505090509392505050565b600060608267ffffffffffffffff8111156105ed576105ed610a9d565b60405190808252806020026020018201604052801561062057816020015b606081526020019060019003908161060b5790505b50905060005b8381101561073857600086815260026020526040902060010185858381811061065157610651610eb3565b905060200281019061066391906110a2565b604051610671929190611092565b9081526020016040518091039020805461068a90610ee5565b80601f01602080910402602001604051908101604052809291908181526020018280546106b690610ee5565b80156107035780601f106106d857610100808354040283529160200191610703565b820191906000526020600020905b8154815290600101906020018083116106e657829003601f168201915b505050505082828151811061071a5761071a610eb3565b602002602001018190525080806107309061102e565b915050610626565b50600094855260026020526040909420549492505050565b60015460408051631748d00d60e31b815290516000926001600160a01b03169163ba4680689160048083019260209291908290030181865afa15801561079a573d6000803e3d6000fd5b505050506040513d601f19601f820116820180604052508101906107be91906110f0565b905090565b600154604051630935e01b60e21b81526001600160a01b03838116600483015260009216906324d7806c90602401602060405180830381865afa15801561080e573d6000803e3d6000fd5b505050506040513d601f19601f820116820180604052508101906108329190610e91565b80610313575060015460405163f3ae241560e01b81526001600160a01b0384811660048301529091169063f3ae2415906024016102d2565b60015460405163078b251160e51b81526001600160a01b038381166004830152600092169063f164a22090602401602060405180830381865afa1580156108b5573d6000803e3d6000fd5b505050506040513d601f19601f8201168201806040525081019061031391906110f0565b6108e16109f0565b6001600160a01b03811661090b57604051631e4fbdf760e01b815260006004820152602401610370565b61091481610a1d565b50565b60015460405163f3ae241560e01b81526001600160a01b038381166004830152600092169063f3ae2415906024016102d2565b80600260008581526020019081526020016000206001018360405161096f9190610ec9565b908152602001604051809103902090816109899190610f6e565b506000838152600260205260408120805482906109a59061102e565b91905081905590507fa1ad81b52de1149f86a90ead963c38e0d3c44f262863d7b793b12113398b88bf848484846040516109e29493929190611055565b60405180910390a150505050565b6000546001600160a01b031633146105065760405163118cdaa760e01b8152336004820152602401610370565b600080546001600160a01b038381166001600160a01b0319831681178455604051919092169283917f8be0079c531659141344cd1fd0a4f28419497f9722a3daafe3b4186f6b6457e09190a35050565b600060208284031215610a7f57600080fd5b81356001600160a01b0381168114610a9657600080fd5b9392505050565b634e487b7160e01b600052604160045260246000fd5b604051601f8201601f1916810167ffffffffffffffff81118282101715610adc57610adc610a9d565b604052919050565b600082601f830112610af557600080fd5b813567ffffffffffffffff811115610b0f57610b0f610a9d565b610b22601f8201601f1916602001610ab3565b818152846020838601011115610b3757600080fd5b816020850160208301376000918101602001919091529392505050565b600082601f830112610b6557600080fd5b8135602067ffffffffffffffff80831115610b8257610b82610a9d565b8260051b610b91838201610ab3565b9384528581018301938381019088861115610bab57600080fd5b84880192505b85831015610be757823584811115610bc95760008081fd5b610bd78a87838c0101610ae4565b8352509184019190840190610bb1565b98975050505050505050565b600080600060608486031215610c0857600080fd5b83359250602084013567ffffffffffffffff80821115610c2757600080fd5b610c3387838801610b54565b93506040860135915080821115610c4957600080fd5b50610c5686828701610b54565b9150509250925092565b600060208284031215610c7257600080fd5b5035919050565b600080600060408486031215610c8e57600080fd5b83359250602084013567ffffffffffffffff80821115610cad57600080fd5b818601915086601f830112610cc157600080fd5b813581811115610cd057600080fd5b876020828501011115610ce257600080fd5b6020830194508093505050509250925092565b60005b83811015610d10578181015183820152602001610cf8565b50506000910152565b60008151808452610d31816020860160208601610cf5565b601f01601f19169290920160200192915050565b602081526000610a966020830184610d19565b600080600060408486031215610d6d57600080fd5b83359250602084013567ffffffffffffffff80821115610d8c57600080fd5b818601915086601f830112610da057600080fd5b813581811115610daf57600080fd5b8760208260051b8501011115610ce257600080fd5b600060408201848352602060408185015281855180845260608601915060608160051b870101935082870160005b82811015610e2057605f19888703018452610e0e868351610d19565b95509284019290840190600101610df2565b509398975050505050505050565b600080600060608486031215610e4357600080fd5b83359250602084013567ffffffffffffffff80821115610e6257600080fd5b610e6e87838801610ae4565b93506040860135915080821115610e8457600080fd5b50610c5686828701610ae4565b600060208284031215610ea357600080fd5b81518015158114610a9657600080fd5b634e487b7160e01b600052603260045260246000fd5b60008251610edb818460208701610cf5565b9190910192915050565b600181811c90821680610ef957607f821691505b602082108103610f1957634e487b7160e01b600052602260045260246000fd5b50919050565b601f821115610f6957600081815260208120601f850160051c81016020861015610f465750805b601f850160051c820191505b81811015610f6557828155600101610f52565b5050505b505050565b815167ffffffffffffffff811115610f8857610f88610a9d565b610f9c81610f968454610ee5565b84610f1f565b602080601f831160018114610fd15760008415610fb95750858301515b600019600386901b1c1916600185901b178555610f65565b600085815260208120601f198616915b8281101561100057888601518255948401946001909101908401610fe1565b508582101561101e5787850151600019600388901b60f8161c191681555b5050505050600190811b01905550565b60006001820161104e57634e487b7160e01b600052601160045260246000fd5b5060010190565b84815260806020820152600061106e6080830186610d19565b82810360408401526110808186610d19565b91505082606083015295945050505050565b8183823760009101908152919050565b6000808335601e198436030181126110b957600080fd5b83018035915067ffffffffffffffff8211156110d457600080fd5b6020019150368190038213156110e957600080fd5b9250929050565b60006020828403121561110257600080fd5b505191905056fea2646970667358221220bb7e236b9671956fe651d40da433d03db48ce9641020986d9271938aefa372f164736f6c63430008140033","linkReferences":{}},"methodIdentifiers":{"getApprovalPower(address)":"f164a220","getApprovalThreshold()":"ba468068","getValidationBatchData(uint256,string[])":"77ea8ffb","getValidationData(uint256,string)":"74dc350f","getValidationNonce(uint256)":"411d16ba","isAdmin(address)":"24d7806c","isAdminOrManager(address)":"e370434c","isManager(address)":"f3ae2415","l2StorageManager()":"6d767708","nextValidationId()":"9804c04f","owner()":"8da5cb5b","renounceOwnership()":"715018a6","setL2StorageManager(address)":"570d9324","setValidationData(uint256,string,string)":"f8ce2cac","setValidationDataBatch(uint256,string[],string[])":"289ec74f","transferOwnership(address)":"f2fde38b","validations(uint256)":"d037a7a3"},"id":7}